{"project/contracts/CredentialRegistry.sol":{"CredentialRegistry":{"abi":[{"inputs":[],"stateMutability":"nonpayable","type":"constructor"},{"inputs":[{"internalType":"string","name":"credentialId","type":"string"}],"name":"CredentialAlreadyAnchored","type":"error"},{"inputs":[{"internalType":"string","name":"credentialId","type":"string"}],"name":"CredentialAlreadyRevoked","type":"error"},{"inputs":[{"internalType":"string","name":"credentialId","type":"string"}],"name":"CredentialNotFound","type":"error"},{"inputs":[],"name":"InvalidCredentialId","type":"error"},{"inputs":[{"internalType":"address","name":"issuer","type":"address"}],"name":"InvalidIssuer","type":"error"},{"inputs":[],"name":"InvalidIssuerName","type":"error"},{"inputs":[],"name":"InvalidProofHash","type":"error"},{"inputs":[{"internalType":"address","name":"owner","type":"address"}],"name":"OwnableInvalidOwner","type":"error"},{"inputs":[{"internalType":"address","name":"account","type":"address"}],"name":"OwnableUnauthorizedAccount","type":"error"},{"inputs":[{"internalType":"bytes32","name":"proofHash","type":"bytes32"}],"name":"ProofHashAlreadyAnchored","type":"error"},{"inputs":[{"internalType":"address","name":"issuer","type":"address"}],"name":"UnauthorizedIssuer","type":"error"},{"inputs":[{"internalType":"address","name":"caller","type":"address"},{"internalType":"string","name":"credentialId","type":"string"}],"name":"UnauthorizedRevoker","type":"error"},{"anonymous":false,"inputs":[{"indexed":false,"internalType":"string","name":"credentialId","type":"string"},{"indexed":false,"internalType":"bytes32","name":"proofHash","type":"bytes32"},{"indexed":false,"internalType":"address","name":"issuer","type":"address"},{"indexed":false,"internalType":"uint256","name":"timestamp","type":"uint256"}],"name":"CredentialAnchored","type":"event"},{"anonymous":false,"inputs":[{"indexed":true,"internalType":"bytes32","name":"credentialKey","type":"bytes32"},{"indexed":true,"internalType":"bytes32","name":"proofHash","type":"bytes32"},{"indexed":true,"internalType":"address","name":"issuer","type":"address"},{"indexed":false,"internalType":"string","name":"credentialId","type":"string"},{"indexed":false,"internalType":"string","name":"issuerName","type":"string"},{"indexed":false,"internalType":"uint256","name":"issuedAt","type":"uint256"}],"name":"CredentialProofAnchored","type":"event"},{"anonymous":false,"inputs":[{"indexed":true,"internalType":"bytes32","name":"credentialKey","type":"bytes32"},{"indexed":true,"internalType":"address","name":"issuer","type":"address"},{"indexed":true,"internalType":"address","name":"revokedBy","type":"address"},{"indexed":false,"internalType":"string","name":"credentialId","type":"string"},{"indexed":false,"internalType":"uint256","name":"issuedAt","type":"uint256"},{"indexed":false,"internalType":"uint256","name":"revokedAt","type":"uint256"}],"name":"CredentialProofRevoked","type":"event"},{"anonymous":false,"inputs":[{"indexed":false,"internalType":"string","name":"credentialId","type":"string"},{"indexed":false,"internalType":"address","name":"issuer","type":"address"},{"indexed":false,"internalType":"address","name":"revokedBy","type":"address"},{"indexed":false,"internalType":"uint256","name":"timestamp","type":"uint256"}],"name":"CredentialRevoked","type":"event"},{"anonymous":false,"inputs":[{"indexed":false,"internalType":"address","name":"issuer","type":"address"},{"indexed":false,"internalType":"uint256","name":"timestamp","type":"uint256"}],"name":"IssuerAuthorized","type":"event"},{"anonymous":false,"inputs":[{"indexed":true,"internalType":"address","name":"issuer","type":"address"},{"indexed":false,"internalType":"string","name":"issuerName","type":"string"},{"indexed":false,"internalType":"uint256","name":"timestamp","type":"uint256"}],"name":"IssuerProfileUpdated","type":"event"},{"anonymous":false,"inputs":[{"indexed":false,"internalType":"address","name":"issuer","type":"address"},{"indexed":false,"internalType":"uint256","name":"timestamp","type":"uint256"}],"name":"IssuerRemoved","type":"event"},{"anonymous":false,"inputs":[{"indexed":true,"internalType":"address","name":"previousOwner","type":"address"},{"indexed":true,"internalType":"address","name":"newOwner","type":"address"}],"name":"OwnershipTransferred","type":"event"},{"inputs":[{"internalType":"string","name":"credentialId","type":"string"},{"internalType":"bytes32","name":"proofHash","type":"bytes32"}],"name":"anchorCredential","outputs":[],"stateMutability":"nonpayable","type":"function"},{"inputs":[{"internalType":"address","name":"issuer","type":"address"}],"name":"authorizeIssuer","outputs":[],"stateMutability":"nonpayable","type":"function"},{"inputs":[{"internalType":"address","name":"issuer","type":"address"},{"internalType":"string","name":"issuerName","type":"string"}],"name":"authorizeIssuerWithName","outputs":[],"stateMutability":"nonpayable","type":"function"},{"inputs":[{"internalType":"string","name":"credentialId","type":"string"}],"name":"credentialExists","outputs":[{"internalType":"bool","name":"","type":"bool"}],"stateMutability":"view","type":"function"},{"inputs":[{"internalType":"bytes32","name":"proofHash","type":"bytes32"}],"name":"credentialHashExists","outputs":[{"internalType":"bool","name":"","type":"bool"}],"stateMutability":"view","type":"function"},{"inputs":[{"internalType":"string","name":"credentialId","type":"string"}],"name":"getCredential","outputs":[{"components":[{"internalType":"string","name":"credentialId","type":"string"},{"internalType":"bytes32","name":"proofHash","type":"bytes32"},{"internalType":"address","name":"issuer","type":"address"},{"internalType":"uint256","name":"anchoredAt","type":"uint256"},{"internalType":"bool","name":"revoked","type":"bool"},{"internalType":"uint256","name":"revokedAt","type":"uint256"},{"internalType":"address","name":"revokedBy","type":"address"},{"internalType":"bool","name":"exists","type":"bool"}],"internalType":"struct CredentialRegistry.CredentialProof","name":"","type":"tuple"}],"stateMutability":"view","type":"function"},{"inputs":[{"internalType":"string","name":"credentialId","type":"string"}],"name":"getCredentialHash","outputs":[{"internalType":"bytes32","name":"","type":"bytes32"}],"stateMutability":"view","type":"function"},{"inputs":[{"internalType":"string","name":"credentialId","type":"string"}],"name":"getCredentialIssuer","outputs":[{"internalType":"address","name":"","type":"address"}],"stateMutability":"view","type":"function"},{"inputs":[{"internalType":"string","name":"credentialId","type":"string"}],"name":"getCredentialKey","outputs":[{"internalType":"bytes32","name":"","type":"bytes32"}],"stateMutability":"pure","type":"function"},{"inputs":[{"internalType":"bytes32","name":"proofHash","type":"bytes32"}],"name":"getCredentialKeyByProofHash","outputs":[{"internalType":"bytes32","name":"","type":"bytes32"}],"stateMutability":"view","type":"function"},{"inputs":[{"internalType":"string","name":"credentialId","type":"string"}],"name":"getCredentialProofMetadata","outputs":[{"components":[{"internalType":"string","name":"credentialId","type":"string"},{"internalType":"bytes32","name":"proofHash","type":"bytes32"},{"internalType":"address","name":"issuer","type":"address"},{"internalType":"string","name":"issuerName","type":"string"},{"internalType":"uint256","name":"issuedAt","type":"uint256"},{"internalType":"bool","name":"exists","type":"bool"},{"internalType":"bool","name":"revoked","type":"bool"},{"internalType":"uint256","name":"revokedAt","type":"uint256"},{"internalType":"address","name":"revokedBy","type":"address"},{"internalType":"bool","name":"issuerAuthorized","type":"bool"},{"internalType":"bool","name":"active","type":"bool"}],"internalType":"struct CredentialRegistry.CredentialProofMetadata","name":"","type":"tuple"}],"stateMutability":"view","type":"function"},{"inputs":[{"internalType":"string","name":"credentialId","type":"string"}],"name":"getCredentialRevocation","outputs":[{"internalType":"bool","name":"revoked","type":"bool"},{"internalType":"uint256","name":"revokedAt","type":"uint256"},{"internalType":"address","name":"revokedBy","type":"address"}],"stateMutability":"view","type":"function"},{"inputs":[{"internalType":"string","name":"credentialId","type":"string"}],"name":"getCredentialTimestamp","outputs":[{"internalType":"uint256","name":"","type":"uint256"}],"stateMutability":"view","type":"function"},{"inputs":[{"internalType":"address","name":"issuer","type":"address"}],"name":"getIssuerProfile","outputs":[{"internalType":"bool","name":"authorized","type":"bool"},{"internalType":"string","name":"issuerName","type":"string"},{"internalType":"uint256","name":"authorizedAt","type":"uint256"},{"internalType":"uint256","name":"removedAt","type":"uint256"}],"stateMutability":"view","type":"function"},{"inputs":[{"internalType":"address","name":"issuer","type":"address"}],"name":"isAuthorizedIssuer","outputs":[{"internalType":"bool","name":"","type":"bool"}],"stateMutability":"view","type":"function"},{"inputs":[{"internalType":"string","name":"credentialId","type":"string"},{"internalType":"address","name":"issuer","type":"address"}],"name":"isCredentialIssuer","outputs":[{"internalType":"bool","name":"","type":"bool"}],"stateMutability":"view","type":"function"},{"inputs":[{"internalType":"string","name":"credentialId","type":"string"}],"name":"isCredentialRevoked","outputs":[{"internalType":"bool","name":"","type":"bool"}],"stateMutability":"view","type":"function"},{"inputs":[{"internalType":"string","name":"credentialId","type":"string"},{"internalType":"bytes32","name":"proofHash","type":"bytes32"}],"name":"isCredentialValid","outputs":[{"internalType":"bool","name":"","type":"bool"}],"stateMutability":"view","type":"function"},{"inputs":[],"name":"owner","outputs":[{"internalType":"address","name":"","type":"address"}],"stateMutability":"view","type":"function"},{"inputs":[{"internalType":"address","name":"issuer","type":"address"}],"name":"removeIssuer","outputs":[],"stateMutability":"nonpayable","type":"function"},{"inputs":[],"name":"renounceOwnership","outputs":[],"stateMutability":"nonpayable","type":"function"},{"inputs":[{"internalType":"string","name":"credentialId","type":"string"}],"name":"revokeCredential","outputs":[],"stateMutability":"nonpayable","type":"function"},{"inputs":[{"internalType":"address","name":"issuer","type":"address"},{"internalType":"string","name":"issuerName","type":"string"}],"name":"setIssuerName","outputs":[],"stateMutability":"nonpayable","type":"function"},{"inputs":[{"internalType":"address","name":"newOwner","type":"address"}],"name":"transferOwnership","outputs":[],"stateMutability":"nonpayable","type":"function"},{"inputs":[{"internalType":"string","name":"credentialId","type":"string"},{"internalType":"bytes32","name":"proofHash","type":"bytes32"}],"name":"verifyCredential","outputs":[{"internalType":"bool","name":"exists","type":"bool"},{"internalType":"bool","name":"integrityVerified","type":"bool"},{"internalType":"bool","name":"revoked","type":"bool"},{"internalType":"address","name":"issuer","type":"address"},{"internalType":"string","name":"issuerName","type":"string"},{"internalType":"uint256","name":"issuedAt","type":"uint256"}],"stateMutability":"view","type":"function"}],"evm":{"bytecode":{"linkReferences":{},"object":"608060405234801561000f575f80fd5b50338061003557604051631e4fbdf760e01b81525f600482015260240160405180910390fd5b61003e81610044565b50610093565b5f80546001600160a01b038381166001600160a01b0319831681178455604051919092169283917f8be0079c531659141344cd1fd0a4f28419497f9722a3daafe3b4186f6b6457e09190a35050565b61212a806100a05f395ff3fe608060405234801561000f575f80fd5b506004361061016d575f3560e01c806380cdb70f116100d9578063b85d4c3b11610093578063d091187f1161006e578063d091187f146103b6578063e5542ed1146103d6578063f0ca84c0146103e9578063f2fde38b146103fc575f80fd5b8063b85d4c3b14610339578063c02bce1214610358578063c0fc414e1461037d575f80fd5b806380cdb70f146102ba57806382c4e329146102dd5780638da5cb5b146102f057806395d40bf8146103005780639b75b6b214610313578063a9b8252914610326575f80fd5b80634e7692bb1161012a5780634e7692bb14610238578063594784a51461024b5780635e9a2d281461026c57806361e2d6021461027f578063715018a6146102925780637b89d8031461029a575f80fd5b8063202c31331461017157806331ba1966146101865780633d9d57c7146101c6578063436693d5146101f157806347bc70931461020457806348870b7a14610217575b5f80fd5b61018461017f366004611981565b61040f565b005b6101b16101943660046119d0565b6001600160a01b03165f9081526003602052604090205460ff1690565b60405190151581526020015b60405180910390f35b6101d96101d43660046119e9565b61047b565b6040516001600160a01b0390911681526020016101bd565b6101846101ff3660046119d0565b6104e0565b6101846102123660046119d0565b610503565b6101b1610225366004611a28565b5f90815260026020526040902054151590565b6101b16102463660046119e9565b6105ab565b61025e6102593660046119e9565b610611565b6040519081526020016101bd565b61018461027a3660046119e9565b61066c565b6101b161028d3660046119e9565b610881565b6101846108e7565b6102ad6102a83660046119e9565b6108fa565b6040516101bd9190611a82565b6102cd6102c83660046119d0565b610c0c565b6040516101bd9493929190611b66565b61025e6102eb3660046119e9565b610d34565b5f546001600160a01b03166101d9565b6101b161030e366004611b93565b610d8d565b6101b1610321366004611be3565b610e79565b610184610334366004611be3565b610f5b565b61025e610347366004611a28565b5f9081526002602052604090205490565b61036b610366366004611be3565b6111d8565b6040516101bd96959493929190611c2b565b61039061038b3660046119e9565b61137a565b60408051931515845260208401929092526001600160a01b0316908201526060016101bd565b6103c96103c43660046119e9565b61144f565b6040516101bd9190611c79565b6101846103e4366004611981565b611611565b61025e6103f73660046119e9565b6116ea565b61018461040a3660046119d0565b611730565b61041761176a565b5f8190036104375760405162c17a0f60e11b815260040160405180910390fd5b6104768383838080601f0160208091040260200160405190810160405280939291908181526020018383808284375f9201919091525061179692505050565b505050565b5f60015f6104bd85858080601f0160208091040260200160405190810160405280939291908181526020018383808284375f920191909152506118c792505050565b815260208101919091526040015f20600301546001600160a01b03169392505050565b6104e861176a565b6105008160405180602001604052805f815250611796565b50565b61050b61176a565b6001600160a01b03811661054157604051628a35a360e61b81526001600160a01b03821660048201526024015b60405180910390fd5b6001600160a01b0381165f818152600360209081526040808320805460ff1916905560048252918290204260029091018190558251938452908301527f7d646dfe52f77b8ef31868b9cddadbd17ee190aba7615b1c4c456bf6e5f5a2da910160405180910390a150565b5f60015f6105ed85858080601f0160208091040260200160405190810160405280939291908181526020018383808284375f920191909152506118c792505050565b815260208101919091526040015f2060040154600160a81b900460ff169392505050565b5f60015f61065385858080601f0160208091040260200160405190810160405280939291908181526020018383808284375f920191909152506118c792505050565b81526020019081526020015f2060010154905092915050565b5f60015f6106ae85858080601f0160208091040260200160405190810160405280939291908181526020018383808284375f920191909152506118c792505050565b81526020019081526020015f2090508060040160159054906101000a900460ff166106f0578282604051638df934e360e01b8152600401610538929190611d29565b60038101546001600160a01b0316331480159061072657503361071a5f546001600160a01b031690565b6001600160a01b031614155b1561074a5733838360405163c43cbf1160e01b815260040161053893929190611d44565b6004810154600160a01b900460ff161561077b578282604051630f4c514560e41b8152600401610538929190611d29565b6004810180544260028401819055600160a01b336001600160a81b031990931683171790925560038301546040517fa69ced0ddfc522e3920c5bb3f23bb11843d49613a90a740a85fc796cf7d7be25936107e593889388936001600160a01b039091169290611d68565b60405180910390a16003810154604080516020601f860181900481028201810190925284815233926001600160a01b03169161083b919087908790819084018382808284375f920191909152506118c792505050565b7f2826594802803cba80b87f588af3721869ac8adee04fbc2b2d46127d7469d25386868660010154426040516108749493929190611d9f565b60405180910390a4505050565b5f60015f6108c385858080601f0160208091040260200160405190810160405280939291908181526020018383808284375f920191909152506118c792505050565b815260208101919091526040015f2060040154600160a01b900460ff169392505050565b6108ef61176a565b6108f85f6118d2565b565b604080516101608101825260608082525f60208301819052928201839052808201526080810182905260a0810182905260c0810182905260e08101829052610100810182905261012081018290526101408101919091525f60015f61099386868080601f0160208091040260200160405190810160405280939291908181526020018383808284375f920191909152506118c792505050565b815260208082019290925260409081015f908120825160e0810184528154815260018201548186015260028201548185015260038201546001600160a01b039081166060830181905260049384015491821660808085019190915260ff600160a01b84048116151560a0860152600160a81b909304909216151560c084015284529190945282822083519182019093528254939450909290919082908290610a3a90611dc5565b80601f0160208091040260200160405190810160405280929190818152602001828054610a6690611dc5565b8015610ab15780601f10610a8857610100808354040283529160200191610ab1565b820191905f5260205f20905b815481529060010190602001808311610a9457829003601f168201915b5050509183525050600182015460208201526002820154604082015260039091015460ff16151560609091015260c08301519091505f908015610af657508260a00151155b90506040518061016001604052808460c00151610b215760405180602001604052805f815250610b57565b87878080601f0160208091040260200160405190810160405280939291908181526020018383808284375f920191909152505050505b8152602001845f0151815260200184606001516001600160a01b03168152602001835f01518152602001846020015181526020018460c00151151581526020018460a00151151581526020018460400151815260200184608001516001600160a01b0316815260200160035f86606001516001600160a01b03166001600160a01b031681526020019081526020015f205f9054906101000a900460ff1615158152602001821515815250935050505092915050565b5f60605f805f60045f876001600160a01b03166001600160a01b031681526020019081526020015f206040518060800160405290815f82018054610c4f90611dc5565b80601f0160208091040260200160405190810160405280929190818152602001828054610c7b90611dc5565b8015610cc65780601f10610c9d57610100808354040283529160200191610cc6565b820191905f5260205f20905b815481529060010190602001808311610ca957829003601f168201915b50505091835250506001820154602080830191909152600283015460408084019190915260039384015460ff90811615156060909401939093526001600160a01b039a909a165f90815292815291899020548351928401519390990151981698909791965090945092505050565b5f60015f610d7685858080601f0160208091040260200160405190810160405280939291908181526020018383808284375f920191909152506118c792505050565b815260208101919091526040015f20549392505050565b5f8060015f610dd087878080601f0160208091040260200160405190810160405280939291908181526020018383808284375f920191909152506118c792505050565b815260208082019290925260409081015f20815160e0810183528154815260018201549381019390935260028101549183019190915260038101546001600160a01b039081166060840152600490910154908116608083015260ff600160a01b82048116151560a0840152600160a81b9091041615801560c08301819052919250610e705750826001600160a01b031681606001516001600160a01b0316145b95945050505050565b5f8060015f610ebc87878080601f0160208091040260200160405190810160405280939291908181526020018383808284375f920191909152506118c792505050565b815260208082019290925260409081015f20815160e0810183528154815260018201549381019390935260028101549183019190915260038101546001600160a01b039081166060840152600490910154908116608083015260ff600160a01b82048116151560a0840152600160a81b9091041615801560c08301819052919250610f475750805183145b8015610e70575060a0015115949350505050565b335f9081526003602052604090205460ff16610f8c57604051632eaf165960e11b8152336004820152602401610538565b5f829003610fad576040516372d5567560e11b815260040160405180910390fd5b80610fcb5760405163b780d61f60e01b815260040160405180910390fd5b5f61100a84848080601f0160208091040260200160405190810160405280939291908181526020018383808284375f920191909152506118c792505050565b5f81815260016020526040902060040154909150600160a81b900460ff161561104a57838360405163783b79c760e11b8152600401610538929190611d29565b5f828152600260205260409020541561107957604051630d64602d60e31b815260048101839052602401610538565b6040805160e0810182528381524260208083018281525f84860181815233606087018181526080880184815260a08901858152600160c08b018181528d8852818a528c88209b518c559751908b015593516002808b0191909155915160038a0180546001600160a01b039283166001600160a01b0319909116179055905160049099018054945196511515600160a81b0260ff60a81b19971515600160a01b026001600160a81b03199096169a90921699909917939093179490941691909117909555878152915283902084905591517f28e61b172b19c21a8f7e14942edb886f7fe88d9ab9f48a5cdd6f5156d85b6fc79261117b9288928892889291611dfd565b60405180910390a1335f81815260046020526040908190209051849184917fb7c2521bc24bcfd4807238d096471841e64ddfd7cb4f35546a07c7992f70979e916111ca918a918a914290611e36565b60405180910390a450505050565b5f805f8060605f8060015f6112218c8c8080601f0160208091040260200160405190810160405280939291908181526020018383808284375f920191909152506118c792505050565b815260208082019290925260409081015f20815160e0810183528154815260018201549381019390935260028101549183019190915260038101546001600160a01b039081166060840152600490910154908116608083015260ff600160a01b82048116151560a0840152600160a81b9091041615801560c0830181905291925081906112ae5750815189145b60a083015160608401516001600160a01b0381165f90815260046020908152604090912090860151815482906112e390611dc5565b80601f016020809104026020016040519081016040528092919081815260200182805461130f90611dc5565b801561135a5780601f106113315761010080835404028352916020019161135a565b820191905f5260205f20905b81548152906001019060200180831161133d57829003601f168201915b505050505091509650965096509650965096505093975093979195509350565b5f805f8060015f6113bf88888080601f0160208091040260200160405190810160405280939291908181526020018383808284375f920191909152506118c792505050565b815260208082019290925260409081015f20815160e08101835281548152600182015493810193909352600281015491830182905260038101546001600160a01b0390811660608501526004909101549081166080840181905260ff600160a01b83048116151560a08601819052600160a81b90930416151560c090940193909352955093509150509250925092565b604080516101008101825260608082525f6020830181905292820183905281018290526080810182905260a0810182905260c0810182905260e08101919091525f60015f6114d186868080601f0160208091040260200160405190810160405280939291908181526020018383808284375f920191909152506118c792505050565b815260208082019290925260409081015f20815160e0810183528154815260018201549381019390935260028101548383015260038101546001600160a01b039081166060850152600490910154908116608084015260ff600160a01b82048116151560a0850152600160a81b90910416151560c0830190815281516101008101909252519192509081906115745760405180602001604052805f8152506115aa565b85858080601f0160208091040260200160405190810160405280939291908181526020018383808284375f920191909152505050505b8152602001825f0151815260200182606001516001600160a01b03168152602001826020015181526020018260a00151151581526020018260400151815260200182608001516001600160a01b031681526020018260c00151151581525091505092915050565b61161961176a565b6001600160a01b03831661164a57604051628a35a360e61b81526001600160a01b0384166004820152602401610538565b5f81900361166a5760405162c17a0f60e11b815260040160405180910390fd5b6001600160a01b0383165f9081526004602052604090208061168d838583611f36565b5060038101805460ff191660011790556040516001600160a01b038516907fbd1f3018bb9fa72391391cd21d590d8a867473039a937c32ebca3d0386775254906116dc90869086904290611ff0565b60405180910390a250505050565b5f61172983838080601f0160208091040260200160405190810160405280939291908181526020018383808284375f920191909152506118c792505050565b9392505050565b61173861176a565b6001600160a01b03811661176157604051631e4fbdf760e01b81525f6004820152602401610538565b610500816118d2565b5f546001600160a01b031633146108f85760405163118cdaa760e01b8152336004820152602401610538565b6001600160a01b0382166117c757604051628a35a360e61b81526001600160a01b0383166004820152602401610538565b6001600160a01b0382165f908152600360208181526040808420805460ff1916600117905560049091529091209081015460ff16158061180957506001810154155b15611815574260018201555b5f600282015560038101805460ff19166001179055815115611881578061183c8382612013565b50826001600160a01b03167fbd1f3018bb9fa72391391cd21d590d8a867473039a937c32ebca3d038677525483426040516118789291906120d3565b60405180910390a25b604080516001600160a01b03851681524260208201527fa0d402b55b358dfac53c7d1b3ef26f4e07d706ad2cab4e9540094020ee9a1d99910160405180910390a1505050565b805160209091012090565b5f80546001600160a01b038381166001600160a01b0319831681178455604051919092169283917f8be0079c531659141344cd1fd0a4f28419497f9722a3daafe3b4186f6b6457e09190a35050565b80356001600160a01b0381168114611937575f80fd5b919050565b5f8083601f84011261194c575f80fd5b50813567ffffffffffffffff811115611963575f80fd5b60208301915083602082850101111561197a575f80fd5b9250929050565b5f805f60408486031215611993575f80fd5b61199c84611921565b9250602084013567ffffffffffffffff8111156119b7575f80fd5b6119c38682870161193c565b9497909650939450505050565b5f602082840312156119e0575f80fd5b61172982611921565b5f80602083850312156119fa575f80fd5b823567ffffffffffffffff811115611a10575f80fd5b611a1c8582860161193c565b90969095509350505050565b5f60208284031215611a38575f80fd5b5035919050565b5f81518084525f5b81811015611a6357602081850181015186830182015201611a47565b505f602082860101526020601f19601f83011685010191505092915050565b602081525f8251610160806020850152611aa0610180850183611a3f565b9150602085015160408501526040850151611ac660608601826001600160a01b03169052565b506060850151848303601f19016080860152611ae28382611a3f565b925050608085015160a085015260a0850151611b0260c086018215159052565b5060c085015180151560e08601525060e085015161010085810191909152850151610120611b3a818701836001600160a01b03169052565b8601519050610140611b4f8682018315159052565b8601518015158387015290505b5090949350505050565b8415158152608060208201525f611b806080830186611a3f565b6040830194909452506060015292915050565b5f805f60408486031215611ba5575f80fd5b833567ffffffffffffffff811115611bbb575f80fd5b611bc78682870161193c565b9094509250611bda905060208501611921565b90509250925092565b5f805f60408486031215611bf5575f80fd5b833567ffffffffffffffff811115611c0b575f80fd5b611c178682870161193c565b909790965060209590950135949350505050565b8615158152851515602082015284151560408201526001600160a01b038416606082015260c0608082018190525f90611c6690830185611a3f565b90508260a0830152979650505050505050565b602081525f8251610100806020850152611c97610120850183611a3f565b91506020850151604085015260018060a01b036040860151166060850152606085015160808501526080850151151560a085015260a085015160c085015260c0850151611cef60e08601826001600160a01b03169052565b5060e085015180151585830152611b5c565b81835281816020850137505f828201602090810191909152601f909101601f19169091010190565b602081525f611d3c602083018486611d01565b949350505050565b6001600160a01b03841681526040602082018190525f90610e709083018486611d01565b608081525f611d7b608083018789611d01565b6001600160a01b039586166020840152939094166040820152606001529392505050565b606081525f611db2606083018688611d01565b6020830194909452506040015292915050565b600181811c90821680611dd957607f821691505b602082108103611df757634e487b7160e01b5f52602260045260245ffd5b50919050565b608081525f611e10608083018789611d01565b6020830195909552506001600160a01b0392909216604083015260609091015292915050565b606081525f611e49606083018688611d01565b6020838203818501525f8654611e5e81611dc5565b80855260018281168015611e795760018114611e9357611ebe565b60ff1984168787015282151560051b870186019450611ebe565b8a5f52855f205f5b84811015611eb6578154898201890152908301908701611e9b565b880187019550505b5050505080935050505082604083015295945050505050565b634e487b7160e01b5f52604160045260245ffd5b601f82111561047657805f5260205f20601f840160051c81016020851015611f105750805b601f840160051c820191505b81811015611f2f575f8155600101611f1c565b5050505050565b67ffffffffffffffff831115611f4e57611f4e611ed7565b611f6283611f5c8354611dc5565b83611eeb565b5f601f841160018114611f93575f8515611f7c5750838201355b5f19600387901b1c1916600186901b178355611f2f565b5f83815260208120601f198716915b82811015611fc25786850135825560209485019460019092019101611fa2565b5086821015611fde575f1960f88860031b161c19848701351681555b505060018560011b0183555050505050565b604081525f612003604083018587611d01565b9050826020830152949350505050565b815167ffffffffffffffff81111561202d5761202d611ed7565b6120418161203b8454611dc5565b84611eeb565b602080601f831160018114612074575f841561205d5750858301515b5f19600386901b1c1916600185901b1785556120cb565b5f85815260208120601f198616915b828110156120a257888601518255948401946001909101908401612083565b50858210156120bf57878501515f19600388901b60f8161c191681555b505060018460011b0185555b505050505050565b604081525f6120e56040830185611a3f565b9050826020830152939250505056fea264697066735822122088f5109431303776fe896a09ae0bde606b5c123b7cf1b1a22fd232b541c11cc064736f6c63430008180033","opcodes":"PUSH1 0x80 PUSH1 0x40 MSTORE CALLVALUE DUP1 ISZERO PUSH2 0xF JUMPI PUSH0 DUP1 REVERT JUMPDEST POP CALLER DUP1 PUSH2 0x35 JUMPI PUSH1 0x40 MLOAD PUSH4 0x1E4FBDF7 PUSH1 0xE0 SHL DUP2 MSTORE PUSH0 PUSH1 0x4 DUP3 ADD MSTORE PUSH1 0x24 ADD PUSH1 0x40 MLOAD DUP1 SWAP2 SUB SWAP1 REVERT JUMPDEST PUSH2 0x3E DUP2 PUSH2 0x44 JUMP JUMPDEST POP PUSH2 0x93 JUMP JUMPDEST PUSH0 DUP1 SLOAD PUSH1 0x1 PUSH1 0x1 PUSH1 0xA0 SHL SUB DUP4 DUP2 AND PUSH1 0x1 PUSH1 0x1 PUSH1 0xA0 SHL SUB NOT DUP4 AND DUP2 OR DUP5 SSTORE PUSH1 0x40 MLOAD SWAP2 SWAP1 SWAP3 AND SWAP3 DUP4 SWAP2 PUSH32 0x8BE0079C531659141344CD1FD0A4F28419497F9722A3DAAFE3B4186F6B6457E0 SWAP2 SWAP1 LOG3 POP POP JUMP JUMPDEST PUSH2 0x212A DUP1 PUSH2 0xA0 PUSH0 CODECOPY PUSH0 RETURN INVALID PUSH1 0x80 PUSH1 0x40 MSTORE CALLVALUE DUP1 ISZERO PUSH2 0xF JUMPI PUSH0 DUP1 REVERT JUMPDEST POP PUSH1 0x4 CALLDATASIZE LT PUSH2 0x16D JUMPI PUSH0 CALLDATALOAD PUSH1 0xE0 SHR DUP1 PUSH4 0x80CDB70F GT PUSH2 0xD9 JUMPI DUP1 PUSH4 0xB85D4C3B GT PUSH2 0x93 JUMPI DUP1 PUSH4 0xD091187F GT PUSH2 0x6E JUMPI DUP1 PUSH4 0xD091187F EQ PUSH2 0x3B6 JUMPI DUP1 PUSH4 0xE5542ED1 EQ PUSH2 0x3D6 JUMPI DUP1 PUSH4 0xF0CA84C0 EQ PUSH2 0x3E9 JUMPI DUP1 PUSH4 0xF2FDE38B EQ PUSH2 0x3FC JUMPI PUSH0 DUP1 REVERT JUMPDEST DUP1 PUSH4 0xB85D4C3B EQ PUSH2 0x339 JUMPI DUP1 PUSH4 0xC02BCE12 EQ PUSH2 0x358 JUMPI DUP1 PUSH4 0xC0FC414E EQ PUSH2 0x37D JUMPI PUSH0 DUP1 REVERT JUMPDEST DUP1 PUSH4 0x80CDB70F EQ PUSH2 0x2BA JUMPI DUP1 PUSH4 0x82C4E329 EQ PUSH2 0x2DD JUMPI DUP1 PUSH4 0x8DA5CB5B EQ PUSH2 0x2F0 JUMPI DUP1 PUSH4 0x95D40BF8 EQ PUSH2 0x300 JUMPI DUP1 PUSH4 0x9B75B6B2 EQ PUSH2 0x313 JUMPI DUP1 PUSH4 0xA9B82529 EQ PUSH2 0x326 JUMPI PUSH0 DUP1 REVERT JUMPDEST DUP1 PUSH4 0x4E7692BB GT PUSH2 0x12A JUMPI DUP1 PUSH4 0x4E7692BB EQ PUSH2 0x238 JUMPI DUP1 PUSH4 0x594784A5 EQ PUSH2 0x24B JUMPI DUP1 PUSH4 0x5E9A2D28 EQ PUSH2 0x26C JUMPI DUP1 PUSH4 0x61E2D602 EQ PUSH2 0x27F JUMPI DUP1 PUSH4 0x715018A6 EQ PUSH2 0x292 JUMPI DUP1 PUSH4 0x7B89D803 EQ PUSH2 0x29A JUMPI PUSH0 DUP1 REVERT JUMPDEST DUP1 PUSH4 0x202C3133 EQ PUSH2 0x171 JUMPI DUP1 PUSH4 0x31BA1966 EQ PUSH2 0x186 JUMPI DUP1 PUSH4 0x3D9D57C7 EQ PUSH2 0x1C6 JUMPI DUP1 PUSH4 0x436693D5 EQ PUSH2 0x1F1 JUMPI DUP1 PUSH4 0x47BC7093 EQ PUSH2 0x204 JUMPI DUP1 PUSH4 0x48870B7A EQ PUSH2 0x217 JUMPI JUMPDEST PUSH0 DUP1 REVERT JUMPDEST PUSH2 0x184 PUSH2 0x17F CALLDATASIZE PUSH1 0x4 PUSH2 0x1981 JUMP JUMPDEST PUSH2 0x40F JUMP JUMPDEST STOP JUMPDEST PUSH2 0x1B1 PUSH2 0x194 CALLDATASIZE PUSH1 0x4 PUSH2 0x19D0 JUMP JUMPDEST PUSH1 0x1 PUSH1 0x1 PUSH1 0xA0 SHL SUB AND PUSH0 SWAP1 DUP2 MSTORE PUSH1 0x3 PUSH1 0x20 MSTORE PUSH1 0x40 SWAP1 KECCAK256 SLOAD PUSH1 0xFF AND SWAP1 JUMP JUMPDEST PUSH1 0x40 MLOAD SWAP1 ISZERO ISZERO DUP2 MSTORE PUSH1 0x20 ADD JUMPDEST PUSH1 0x40 MLOAD DUP1 SWAP2 SUB SWAP1 RETURN JUMPDEST PUSH2 0x1D9 PUSH2 0x1D4 CALLDATASIZE PUSH1 0x4 PUSH2 0x19E9 JUMP JUMPDEST PUSH2 0x47B JUMP JUMPDEST PUSH1 0x40 MLOAD PUSH1 0x1 PUSH1 0x1 PUSH1 0xA0 SHL SUB SWAP1 SWAP2 AND DUP2 MSTORE PUSH1 0x20 ADD PUSH2 0x1BD JUMP JUMPDEST PUSH2 0x184 PUSH2 0x1FF CALLDATASIZE PUSH1 0x4 PUSH2 0x19D0 JUMP JUMPDEST PUSH2 0x4E0 JUMP JUMPDEST PUSH2 0x184 PUSH2 0x212 CALLDATASIZE PUSH1 0x4 PUSH2 0x19D0 JUMP JUMPDEST PUSH2 0x503 JUMP JUMPDEST PUSH2 0x1B1 PUSH2 0x225 CALLDATASIZE PUSH1 0x4 PUSH2 0x1A28 JUMP JUMPDEST PUSH0 SWAP1 DUP2 MSTORE PUSH1 0x2 PUSH1 0x20 MSTORE PUSH1 0x40 SWAP1 KECCAK256 SLOAD ISZERO ISZERO SWAP1 JUMP JUMPDEST PUSH2 0x1B1 PUSH2 0x246 CALLDATASIZE PUSH1 0x4 PUSH2 0x19E9 JUMP JUMPDEST PUSH2 0x5AB JUMP JUMPDEST PUSH2 0x25E PUSH2 0x259 CALLDATASIZE PUSH1 0x4 PUSH2 0x19E9 JUMP JUMPDEST PUSH2 0x611 JUMP JUMPDEST PUSH1 0x40 MLOAD SWAP1 DUP2 MSTORE PUSH1 0x20 ADD PUSH2 0x1BD JUMP JUMPDEST PUSH2 0x184 PUSH2 0x27A CALLDATASIZE PUSH1 0x4 PUSH2 0x19E9 JUMP JUMPDEST PUSH2 0x66C JUMP JUMPDEST PUSH2 0x1B1 PUSH2 0x28D CALLDATASIZE PUSH1 0x4 PUSH2 0x19E9 JUMP JUMPDEST PUSH2 0x881 JUMP JUMPDEST PUSH2 0x184 PUSH2 0x8E7 JUMP JUMPDEST PUSH2 0x2AD PUSH2 0x2A8 CALLDATASIZE PUSH1 0x4 PUSH2 0x19E9 JUMP JUMPDEST PUSH2 0x8FA JUMP JUMPDEST PUSH1 0x40 MLOAD PUSH2 0x1BD SWAP2 SWAP1 PUSH2 0x1A82 JUMP JUMPDEST PUSH2 0x2CD PUSH2 0x2C8 CALLDATASIZE PUSH1 0x4 PUSH2 0x19D0 JUMP JUMPDEST PUSH2 0xC0C JUMP JUMPDEST PUSH1 0x40 MLOAD PUSH2 0x1BD SWAP5 SWAP4 SWAP3 SWAP2 SWAP1 PUSH2 0x1B66 JUMP JUMPDEST PUSH2 0x25E PUSH2 0x2EB CALLDATASIZE PUSH1 0x4 PUSH2 0x19E9 JUMP JUMPDEST PUSH2 0xD34 JUMP JUMPDEST PUSH0 SLOAD PUSH1 0x1 PUSH1 0x1 PUSH1 0xA0 SHL SUB AND PUSH2 0x1D9 JUMP JUMPDEST PUSH2 0x1B1 PUSH2 0x30E CALLDATASIZE PUSH1 0x4 PUSH2 0x1B93 JUMP JUMPDEST PUSH2 0xD8D JUMP JUMPDEST PUSH2 0x1B1 PUSH2 0x321 CALLDATASIZE PUSH1 0x4 PUSH2 0x1BE3 JUMP JUMPDEST PUSH2 0xE79 JUMP JUMPDEST PUSH2 0x184 PUSH2 0x334 CALLDATASIZE PUSH1 0x4 PUSH2 0x1BE3 JUMP JUMPDEST PUSH2 0xF5B JUMP JUMPDEST PUSH2 0x25E PUSH2 0x347 CALLDATASIZE PUSH1 0x4 PUSH2 0x1A28 JUMP JUMPDEST PUSH0 SWAP1 DUP2 MSTORE PUSH1 0x2 PUSH1 0x20 MSTORE PUSH1 0x40 SWAP1 KECCAK256 SLOAD SWAP1 JUMP JUMPDEST PUSH2 0x36B PUSH2 0x366 CALLDATASIZE PUSH1 0x4 PUSH2 0x1BE3 JUMP JUMPDEST PUSH2 0x11D8 JUMP JUMPDEST PUSH1 0x40 MLOAD PUSH2 0x1BD SWAP7 SWAP6 SWAP5 SWAP4 SWAP3 SWAP2 SWAP1 PUSH2 0x1C2B JUMP JUMPDEST PUSH2 0x390 PUSH2 0x38B CALLDATASIZE PUSH1 0x4 PUSH2 0x19E9 JUMP JUMPDEST PUSH2 0x137A JUMP JUMPDEST PUSH1 0x40 DUP1 MLOAD SWAP4 ISZERO ISZERO DUP5 MSTORE PUSH1 0x20 DUP5 ADD SWAP3 SWAP1 SWAP3 MSTORE PUSH1 0x1 PUSH1 0x1 PUSH1 0xA0 SHL SUB AND SWAP1 DUP3 ADD MSTORE PUSH1 0x60 ADD PUSH2 0x1BD JUMP JUMPDEST PUSH2 0x3C9 PUSH2 0x3C4 CALLDATASIZE PUSH1 0x4 PUSH2 0x19E9 JUMP JUMPDEST PUSH2 0x144F JUMP JUMPDEST PUSH1 0x40 MLOAD PUSH2 0x1BD SWAP2 SWAP1 PUSH2 0x1C79 JUMP JUMPDEST PUSH2 0x184 PUSH2 0x3E4 CALLDATASIZE PUSH1 0x4 PUSH2 0x1981 JUMP JUMPDEST PUSH2 0x1611 JUMP JUMPDEST PUSH2 0x25E PUSH2 0x3F7 CALLDATASIZE PUSH1 0x4 PUSH2 0x19E9 JUMP JUMPDEST PUSH2 0x16EA JUMP JUMPDEST PUSH2 0x184 PUSH2 0x40A CALLDATASIZE PUSH1 0x4 PUSH2 0x19D0 JUMP JUMPDEST PUSH2 0x1730 JUMP JUMPDEST PUSH2 0x417 PUSH2 0x176A JUMP JUMPDEST PUSH0 DUP2 SWAP1 SUB PUSH2 0x437 JUMPI PUSH1 0x40 MLOAD PUSH3 0xC17A0F PUSH1 0xE1 SHL DUP2 MSTORE PUSH1 0x4 ADD PUSH1 0x40 MLOAD DUP1 SWAP2 SUB SWAP1 REVERT JUMPDEST PUSH2 0x476 DUP4 DUP4 DUP4 DUP1 DUP1 PUSH1 0x1F ADD PUSH1 0x20 DUP1 SWAP2 DIV MUL PUSH1 0x20 ADD PUSH1 0x40 MLOAD SWAP1 DUP2 ADD PUSH1 0x40 MSTORE DUP1 SWAP4 SWAP3 SWAP2 SWAP1 DUP2 DUP2 MSTORE PUSH1 0x20 ADD DUP4 DUP4 DUP1 DUP3 DUP5 CALLDATACOPY PUSH0 SWAP3 ADD SWAP2 SWAP1 SWAP2 MSTORE POP PUSH2 0x1796 SWAP3 POP POP POP JUMP JUMPDEST POP POP POP JUMP JUMPDEST PUSH0 PUSH1 0x1 PUSH0 PUSH2 0x4BD DUP6 DUP6 DUP1 DUP1 PUSH1 0x1F ADD PUSH1 0x20 DUP1 SWAP2 DIV MUL PUSH1 0x20 ADD PUSH1 0x40 MLOAD SWAP1 DUP2 ADD PUSH1 0x40 MSTORE DUP1 SWAP4 SWAP3 SWAP2 SWAP1 DUP2 DUP2 MSTORE PUSH1 0x20 ADD DUP4 DUP4 DUP1 DUP3 DUP5 CALLDATACOPY PUSH0 SWAP3 ADD SWAP2 SWAP1 SWAP2 MSTORE POP PUSH2 0x18C7 SWAP3 POP POP POP JUMP JUMPDEST DUP2 MSTORE PUSH1 0x20 DUP2 ADD SWAP2 SWAP1 SWAP2 MSTORE PUSH1 0x40 ADD PUSH0 KECCAK256 PUSH1 0x3 ADD SLOAD PUSH1 0x1 PUSH1 0x1 PUSH1 0xA0 SHL SUB AND SWAP4 SWAP3 POP POP POP JUMP JUMPDEST PUSH2 0x4E8 PUSH2 0x176A JUMP JUMPDEST PUSH2 0x500 DUP2 PUSH1 0x40 MLOAD DUP1 PUSH1 0x20 ADD PUSH1 0x40 MSTORE DUP1 PUSH0 DUP2 MSTORE POP PUSH2 0x1796 JUMP JUMPDEST POP JUMP JUMPDEST PUSH2 0x50B PUSH2 0x176A JUMP JUMPDEST PUSH1 0x1 PUSH1 0x1 PUSH1 0xA0 SHL SUB DUP2 AND PUSH2 0x541 JUMPI PUSH1 0x40 MLOAD PUSH3 0x8A35A3 PUSH1 0xE6 SHL DUP2 MSTORE PUSH1 0x1 PUSH1 0x1 PUSH1 0xA0 SHL SUB DUP3 AND PUSH1 0x4 DUP3 ADD MSTORE PUSH1 0x24 ADD JUMPDEST PUSH1 0x40 MLOAD DUP1 SWAP2 SUB SWAP1 REVERT JUMPDEST PUSH1 0x1 PUSH1 0x1 PUSH1 0xA0 SHL SUB DUP2 AND PUSH0 DUP2 DUP2 MSTORE PUSH1 0x3 PUSH1 0x20 SWAP1 DUP2 MSTORE PUSH1 0x40 DUP1 DUP4 KECCAK256 DUP1 SLOAD PUSH1 0xFF NOT AND SWAP1 SSTORE PUSH1 0x4 DUP3 MSTORE SWAP2 DUP3 SWAP1 KECCAK256 TIMESTAMP PUSH1 0x2 SWAP1 SWAP2 ADD DUP2 SWAP1 SSTORE DUP3 MLOAD SWAP4 DUP5 MSTORE SWAP1 DUP4 ADD MSTORE PUSH32 0x7D646DFE52F77B8EF31868B9CDDADBD17EE190ABA7615B1C4C456BF6E5F5A2DA SWAP2 ADD PUSH1 0x40 MLOAD DUP1 SWAP2 SUB SWAP1 LOG1 POP JUMP JUMPDEST PUSH0 PUSH1 0x1 PUSH0 PUSH2 0x5ED DUP6 DUP6 DUP1 DUP1 PUSH1 0x1F ADD PUSH1 0x20 DUP1 SWAP2 DIV MUL PUSH1 0x20 ADD PUSH1 0x40 MLOAD SWAP1 DUP2 ADD PUSH1 0x40 MSTORE DUP1 SWAP4 SWAP3 SWAP2 SWAP1 DUP2 DUP2 MSTORE PUSH1 0x20 ADD DUP4 DUP4 DUP1 DUP3 DUP5 CALLDATACOPY PUSH0 SWAP3 ADD SWAP2 SWAP1 SWAP2 MSTORE POP PUSH2 0x18C7 SWAP3 POP POP POP JUMP JUMPDEST DUP2 MSTORE PUSH1 0x20 DUP2 ADD SWAP2 SWAP1 SWAP2 MSTORE PUSH1 0x40 ADD PUSH0 KECCAK256 PUSH1 0x4 ADD SLOAD PUSH1 0x1 PUSH1 0xA8 SHL SWAP1 DIV PUSH1 0xFF AND SWAP4 SWAP3 POP POP POP JUMP JUMPDEST PUSH0 PUSH1 0x1 PUSH0 PUSH2 0x653 DUP6 DUP6 DUP1 DUP1 PUSH1 0x1F ADD PUSH1 0x20 DUP1 SWAP2 DIV MUL PUSH1 0x20 ADD PUSH1 0x40 MLOAD SWAP1 DUP2 ADD PUSH1 0x40 MSTORE DUP1 SWAP4 SWAP3 SWAP2 SWAP1 DUP2 DUP2 MSTORE PUSH1 0x20 ADD DUP4 DUP4 DUP1 DUP3 DUP5 CALLDATACOPY PUSH0 SWAP3 ADD SWAP2 SWAP1 SWAP2 MSTORE POP PUSH2 0x18C7 SWAP3 POP POP POP JUMP JUMPDEST DUP2 MSTORE PUSH1 0x20 ADD SWAP1 DUP2 MSTORE PUSH1 0x20 ADD PUSH0 KECCAK256 PUSH1 0x1 ADD SLOAD SWAP1 POP SWAP3 SWAP2 POP POP JUMP JUMPDEST PUSH0 PUSH1 0x1 PUSH0 PUSH2 0x6AE DUP6 DUP6 DUP1 DUP1 PUSH1 0x1F ADD PUSH1 0x20 DUP1 SWAP2 DIV MUL PUSH1 0x20 ADD PUSH1 0x40 MLOAD SWAP1 DUP2 ADD PUSH1 0x40 MSTORE DUP1 SWAP4 SWAP3 SWAP2 SWAP1 DUP2 DUP2 MSTORE PUSH1 0x20 ADD DUP4 DUP4 DUP1 DUP3 DUP5 CALLDATACOPY PUSH0 SWAP3 ADD SWAP2 SWAP1 SWAP2 MSTORE POP PUSH2 0x18C7 SWAP3 POP POP POP JUMP JUMPDEST DUP2 MSTORE PUSH1 0x20 ADD SWAP1 DUP2 MSTORE PUSH1 0x20 ADD PUSH0 KECCAK256 SWAP1 POP DUP1 PUSH1 0x4 ADD PUSH1 0x15 SWAP1 SLOAD SWAP1 PUSH2 0x100 EXP SWAP1 DIV PUSH1 0xFF AND PUSH2 0x6F0 JUMPI DUP3 DUP3 PUSH1 0x40 MLOAD PUSH4 0x8DF934E3 PUSH1 0xE0 SHL DUP2 MSTORE PUSH1 0x4 ADD PUSH2 0x538 SWAP3 SWAP2 SWAP1 PUSH2 0x1D29 JUMP JUMPDEST PUSH1 0x3 DUP2 ADD SLOAD PUSH1 0x1 PUSH1 0x1 PUSH1 0xA0 SHL SUB AND CALLER EQ DUP1 ISZERO SWAP1 PUSH2 0x726 JUMPI POP CALLER PUSH2 0x71A PUSH0 SLOAD PUSH1 0x1 PUSH1 0x1 PUSH1 0xA0 SHL SUB AND SWAP1 JUMP JUMPDEST PUSH1 0x1 PUSH1 0x1 PUSH1 0xA0 SHL SUB AND EQ ISZERO JUMPDEST ISZERO PUSH2 0x74A JUMPI CALLER DUP4 DUP4 PUSH1 0x40 MLOAD PUSH4 0xC43CBF11 PUSH1 0xE0 SHL DUP2 MSTORE PUSH1 0x4 ADD PUSH2 0x538 SWAP4 SWAP3 SWAP2 SWAP1 PUSH2 0x1D44 JUMP JUMPDEST PUSH1 0x4 DUP2 ADD SLOAD PUSH1 0x1 PUSH1 0xA0 SHL SWAP1 DIV PUSH1 0xFF AND ISZERO PUSH2 0x77B JUMPI DUP3 DUP3 PUSH1 0x40 MLOAD PUSH4 0xF4C5145 PUSH1 0xE4 SHL DUP2 MSTORE PUSH1 0x4 ADD PUSH2 0x538 SWAP3 SWAP2 SWAP1 PUSH2 0x1D29 JUMP JUMPDEST PUSH1 0x4 DUP2 ADD DUP1 SLOAD TIMESTAMP PUSH1 0x2 DUP5 ADD DUP2 SWAP1 SSTORE PUSH1 0x1 PUSH1 0xA0 SHL CALLER PUSH1 0x1 PUSH1 0x1 PUSH1 0xA8 SHL SUB NOT SWAP1 SWAP4 AND DUP4 OR OR SWAP1 SWAP3 SSTORE PUSH1 0x3 DUP4 ADD SLOAD PUSH1 0x40 MLOAD PUSH32 0xA69CED0DDFC522E3920C5BB3F23BB11843D49613A90A740A85FC796CF7D7BE25 SWAP4 PUSH2 0x7E5 SWAP4 DUP9 SWAP4 DUP9 SWAP4 PUSH1 0x1 PUSH1 0x1 PUSH1 0xA0 SHL SUB SWAP1 SWAP2 AND SWAP3 SWAP1 PUSH2 0x1D68 JUMP JUMPDEST PUSH1 0x40 MLOAD DUP1 SWAP2 SUB SWAP1 LOG1 PUSH1 0x3 DUP2 ADD SLOAD PUSH1 0x40 DUP1 MLOAD PUSH1 0x20 PUSH1 0x1F DUP7 ADD DUP2 SWAP1 DIV DUP2 MUL DUP3 ADD DUP2 ADD SWAP1 SWAP3 MSTORE DUP5 DUP2 MSTORE CALLER SWAP3 PUSH1 0x1 PUSH1 0x1 PUSH1 0xA0 SHL SUB AND SWAP2 PUSH2 0x83B SWAP2 SWAP1 DUP8 SWAP1 DUP8 SWAP1 DUP2 SWAP1 DUP5 ADD DUP4 DUP3 DUP1 DUP3 DUP5 CALLDATACOPY PUSH0 SWAP3 ADD SWAP2 SWAP1 SWAP2 MSTORE POP PUSH2 0x18C7 SWAP3 POP POP POP JUMP JUMPDEST PUSH32 0x2826594802803CBA80B87F588AF3721869AC8ADEE04FBC2B2D46127D7469D253 DUP7 DUP7 DUP7 PUSH1 0x1 ADD SLOAD TIMESTAMP PUSH1 0x40 MLOAD PUSH2 0x874 SWAP5 SWAP4 SWAP3 SWAP2 SWAP1 PUSH2 0x1D9F JUMP JUMPDEST PUSH1 0x40 MLOAD DUP1 SWAP2 SUB SWAP1 LOG4 POP POP POP JUMP JUMPDEST PUSH0 PUSH1 0x1 PUSH0 PUSH2 0x8C3 DUP6 DUP6 DUP1 DUP1 PUSH1 0x1F ADD PUSH1 0x20 DUP1 SWAP2 DIV MUL PUSH1 0x20 ADD PUSH1 0x40 MLOAD SWAP1 DUP2 ADD PUSH1 0x40 MSTORE DUP1 SWAP4 SWAP3 SWAP2 SWAP1 DUP2 DUP2 MSTORE PUSH1 0x20 ADD DUP4 DUP4 DUP1 DUP3 DUP5 CALLDATACOPY PUSH0 SWAP3 ADD SWAP2 SWAP1 SWAP2 MSTORE POP PUSH2 0x18C7 SWAP3 POP POP POP JUMP JUMPDEST DUP2 MSTORE PUSH1 0x20 DUP2 ADD SWAP2 SWAP1 SWAP2 MSTORE PUSH1 0x40 ADD PUSH0 KECCAK256 PUSH1 0x4 ADD SLOAD PUSH1 0x1 PUSH1 0xA0 SHL SWAP1 DIV PUSH1 0xFF AND SWAP4 SWAP3 POP POP POP JUMP JUMPDEST PUSH2 0x8EF PUSH2 0x176A JUMP JUMPDEST PUSH2 0x8F8 PUSH0 PUSH2 0x18D2 JUMP JUMPDEST JUMP JUMPDEST PUSH1 0x40 DUP1 MLOAD PUSH2 0x160 DUP2 ADD DUP3 MSTORE PUSH1 0x60 DUP1 DUP3 MSTORE PUSH0 PUSH1 0x20 DUP4 ADD DUP2 SWAP1 MSTORE SWAP3 DUP3 ADD DUP4 SWAP1 MSTORE DUP1 DUP3 ADD MSTORE PUSH1 0x80 DUP2 ADD DUP3 SWAP1 MSTORE PUSH1 0xA0 DUP2 ADD DUP3 SWAP1 MSTORE PUSH1 0xC0 DUP2 ADD DUP3 SWAP1 MSTORE PUSH1 0xE0 DUP2 ADD DUP3 SWAP1 MSTORE PUSH2 0x100 DUP2 ADD DUP3 SWAP1 MSTORE PUSH2 0x120 DUP2 ADD DUP3 SWAP1 MSTORE PUSH2 0x140 DUP2 ADD SWAP2 SWAP1 SWAP2 MSTORE PUSH0 PUSH1 0x1 PUSH0 PUSH2 0x993 DUP7 DUP7 DUP1 DUP1 PUSH1 0x1F ADD PUSH1 0x20 DUP1 SWAP2 DIV MUL PUSH1 0x20 ADD PUSH1 0x40 MLOAD SWAP1 DUP2 ADD PUSH1 0x40 MSTORE DUP1 SWAP4 SWAP3 SWAP2 SWAP1 DUP2 DUP2 MSTORE PUSH1 0x20 ADD DUP4 DUP4 DUP1 DUP3 DUP5 CALLDATACOPY PUSH0 SWAP3 ADD SWAP2 SWAP1 SWAP2 MSTORE POP PUSH2 0x18C7 SWAP3 POP POP POP JUMP JUMPDEST DUP2 MSTORE PUSH1 0x20 DUP1 DUP3 ADD SWAP3 SWAP1 SWAP3 MSTORE PUSH1 0x40 SWAP1 DUP2 ADD PUSH0 SWAP1 DUP2 KECCAK256 DUP3 MLOAD PUSH1 0xE0 DUP2 ADD DUP5 MSTORE DUP2 SLOAD DUP2 MSTORE PUSH1 0x1 DUP3 ADD SLOAD DUP2 DUP7 ADD MSTORE PUSH1 0x2 DUP3 ADD SLOAD DUP2 DUP6 ADD MSTORE PUSH1 0x3 DUP3 ADD SLOAD PUSH1 0x1 PUSH1 0x1 PUSH1 0xA0 SHL SUB SWAP1 DUP2 AND PUSH1 0x60 DUP4 ADD DUP2 SWAP1 MSTORE PUSH1 0x4 SWAP4 DUP5 ADD SLOAD SWAP2 DUP3 AND PUSH1 0x80 DUP1 DUP6 ADD SWAP2 SWAP1 SWAP2 MSTORE PUSH1 0xFF PUSH1 0x1 PUSH1 0xA0 SHL DUP5 DIV DUP2 AND ISZERO ISZERO PUSH1 0xA0 DUP7 ADD MSTORE PUSH1 0x1 PUSH1 0xA8 SHL SWAP1 SWAP4 DIV SWAP1 SWAP3 AND ISZERO ISZERO PUSH1 0xC0 DUP5 ADD MSTORE DUP5 MSTORE SWAP2 SWAP1 SWAP5 MSTORE DUP3 DUP3 KECCAK256 DUP4 MLOAD SWAP2 DUP3 ADD SWAP1 SWAP4 MSTORE DUP3 SLOAD SWAP4 SWAP5 POP SWAP1 SWAP3 SWAP1 SWAP2 SWAP1 DUP3 SWAP1 DUP3 SWAP1 PUSH2 0xA3A SWAP1 PUSH2 0x1DC5 JUMP JUMPDEST DUP1 PUSH1 0x1F ADD PUSH1 0x20 DUP1 SWAP2 DIV MUL PUSH1 0x20 ADD PUSH1 0x40 MLOAD SWAP1 DUP2 ADD PUSH1 0x40 MSTORE DUP1 SWAP3 SWAP2 SWAP1 DUP2 DUP2 MSTORE PUSH1 0x20 ADD DUP3 DUP1 SLOAD PUSH2 0xA66 SWAP1 PUSH2 0x1DC5 JUMP JUMPDEST DUP1 ISZERO PUSH2 0xAB1 JUMPI DUP1 PUSH1 0x1F LT PUSH2 0xA88 JUMPI PUSH2 0x100 DUP1 DUP4 SLOAD DIV MUL DUP4 MSTORE SWAP2 PUSH1 0x20 ADD SWAP2 PUSH2 0xAB1 JUMP JUMPDEST DUP3 ADD SWAP2 SWAP1 PUSH0 MSTORE PUSH1 0x20 PUSH0 KECCAK256 SWAP1 JUMPDEST DUP2 SLOAD DUP2 MSTORE SWAP1 PUSH1 0x1 ADD SWAP1 PUSH1 0x20 ADD DUP1 DUP4 GT PUSH2 0xA94 JUMPI DUP3 SWAP1 SUB PUSH1 0x1F AND DUP3 ADD SWAP2 JUMPDEST POP POP POP SWAP2 DUP4 MSTORE POP POP PUSH1 0x1 DUP3 ADD SLOAD PUSH1 0x20 DUP3 ADD MSTORE PUSH1 0x2 DUP3 ADD SLOAD PUSH1 0x40 DUP3 ADD MSTORE PUSH1 0x3 SWAP1 SWAP2 ADD SLOAD PUSH1 0xFF AND ISZERO ISZERO PUSH1 0x60 SWAP1 SWAP2 ADD MSTORE PUSH1 0xC0 DUP4 ADD MLOAD SWAP1 SWAP2 POP PUSH0 SWAP1 DUP1 ISZERO PUSH2 0xAF6 JUMPI POP DUP3 PUSH1 0xA0 ADD MLOAD ISZERO JUMPDEST SWAP1 POP PUSH1 0x40 MLOAD DUP1 PUSH2 0x160 ADD PUSH1 0x40 MSTORE DUP1 DUP5 PUSH1 0xC0 ADD MLOAD PUSH2 0xB21 JUMPI PUSH1 0x40 MLOAD DUP1 PUSH1 0x20 ADD PUSH1 0x40 MSTORE DUP1 PUSH0 DUP2 MSTORE POP PUSH2 0xB57 JUMP JUMPDEST DUP8 DUP8 DUP1 DUP1 PUSH1 0x1F ADD PUSH1 0x20 DUP1 SWAP2 DIV MUL PUSH1 0x20 ADD PUSH1 0x40 MLOAD SWAP1 DUP2 ADD PUSH1 0x40 MSTORE DUP1 SWAP4 SWAP3 SWAP2 SWAP1 DUP2 DUP2 MSTORE PUSH1 0x20 ADD DUP4 DUP4 DUP1 DUP3 DUP5 CALLDATACOPY PUSH0 SWAP3 ADD SWAP2 SWAP1 SWAP2 MSTORE POP POP POP POP JUMPDEST DUP2 MSTORE PUSH1 0x20 ADD DUP5 PUSH0 ADD MLOAD DUP2 MSTORE PUSH1 0x20 ADD DUP5 PUSH1 0x60 ADD MLOAD PUSH1 0x1 PUSH1 0x1 PUSH1 0xA0 SHL SUB AND DUP2 MSTORE PUSH1 0x20 ADD DUP4 PUSH0 ADD MLOAD DUP2 MSTORE PUSH1 0x20 ADD DUP5 PUSH1 0x20 ADD MLOAD DUP2 MSTORE PUSH1 0x20 ADD DUP5 PUSH1 0xC0 ADD MLOAD ISZERO ISZERO DUP2 MSTORE PUSH1 0x20 ADD DUP5 PUSH1 0xA0 ADD MLOAD ISZERO ISZERO DUP2 MSTORE PUSH1 0x20 ADD DUP5 PUSH1 0x40 ADD MLOAD DUP2 MSTORE PUSH1 0x20 ADD DUP5 PUSH1 0x80 ADD MLOAD PUSH1 0x1 PUSH1 0x1 PUSH1 0xA0 SHL SUB AND DUP2 MSTORE PUSH1 0x20 ADD PUSH1 0x3 PUSH0 DUP7 PUSH1 0x60 ADD MLOAD PUSH1 0x1 PUSH1 0x1 PUSH1 0xA0 SHL SUB AND PUSH1 0x1 PUSH1 0x1 PUSH1 0xA0 SHL SUB AND DUP2 MSTORE PUSH1 0x20 ADD SWAP1 DUP2 MSTORE PUSH1 0x20 ADD PUSH0 KECCAK256 PUSH0 SWAP1 SLOAD SWAP1 PUSH2 0x100 EXP SWAP1 DIV PUSH1 0xFF AND ISZERO ISZERO DUP2 MSTORE PUSH1 0x20 ADD DUP3 ISZERO ISZERO DUP2 MSTORE POP SWAP4 POP POP POP POP SWAP3 SWAP2 POP POP JUMP JUMPDEST PUSH0 PUSH1 0x60 PUSH0 DUP1 PUSH0 PUSH1 0x4 PUSH0 DUP8 PUSH1 0x1 PUSH1 0x1 PUSH1 0xA0 SHL SUB AND PUSH1 0x1 PUSH1 0x1 PUSH1 0xA0 SHL SUB AND DUP2 MSTORE PUSH1 0x20 ADD SWAP1 DUP2 MSTORE PUSH1 0x20 ADD PUSH0 KECCAK256 PUSH1 0x40 MLOAD DUP1 PUSH1 0x80 ADD PUSH1 0x40 MSTORE SWAP1 DUP2 PUSH0 DUP3 ADD DUP1 SLOAD PUSH2 0xC4F SWAP1 PUSH2 0x1DC5 JUMP JUMPDEST DUP1 PUSH1 0x1F ADD PUSH1 0x20 DUP1 SWAP2 DIV MUL PUSH1 0x20 ADD PUSH1 0x40 MLOAD SWAP1 DUP2 ADD PUSH1 0x40 MSTORE DUP1 SWAP3 SWAP2 SWAP1 DUP2 DUP2 MSTORE PUSH1 0x20 ADD DUP3 DUP1 SLOAD PUSH2 0xC7B SWAP1 PUSH2 0x1DC5 JUMP JUMPDEST DUP1 ISZERO PUSH2 0xCC6 JUMPI DUP1 PUSH1 0x1F LT PUSH2 0xC9D JUMPI PUSH2 0x100 DUP1 DUP4 SLOAD DIV MUL DUP4 MSTORE SWAP2 PUSH1 0x20 ADD SWAP2 PUSH2 0xCC6 JUMP JUMPDEST DUP3 ADD SWAP2 SWAP1 PUSH0 MSTORE PUSH1 0x20 PUSH0 KECCAK256 SWAP1 JUMPDEST DUP2 SLOAD DUP2 MSTORE SWAP1 PUSH1 0x1 ADD SWAP1 PUSH1 0x20 ADD DUP1 DUP4 GT PUSH2 0xCA9 JUMPI DUP3 SWAP1 SUB PUSH1 0x1F AND DUP3 ADD SWAP2 JUMPDEST POP POP POP SWAP2 DUP4 MSTORE POP POP PUSH1 0x1 DUP3 ADD SLOAD PUSH1 0x20 DUP1 DUP4 ADD SWAP2 SWAP1 SWAP2 MSTORE PUSH1 0x2 DUP4 ADD SLOAD PUSH1 0x40 DUP1 DUP5 ADD SWAP2 SWAP1 SWAP2 MSTORE PUSH1 0x3 SWAP4 DUP5 ADD SLOAD PUSH1 0xFF SWAP1 DUP2 AND ISZERO ISZERO PUSH1 0x60 SWAP1 SWAP5 ADD SWAP4 SWAP1 SWAP4 MSTORE PUSH1 0x1 PUSH1 0x1 PUSH1 0xA0 SHL SUB SWAP11 SWAP1 SWAP11 AND PUSH0 SWAP1 DUP2 MSTORE SWAP3 DUP2 MSTORE SWAP2 DUP10 SWAP1 KECCAK256 SLOAD DUP4 MLOAD SWAP3 DUP5 ADD MLOAD SWAP4 SWAP1 SWAP10 ADD MLOAD SWAP9 AND SWAP9 SWAP1 SWAP8 SWAP2 SWAP7 POP SWAP1 SWAP5 POP SWAP3 POP POP POP JUMP JUMPDEST PUSH0 PUSH1 0x1 PUSH0 PUSH2 0xD76 DUP6 DUP6 DUP1 DUP1 PUSH1 0x1F ADD PUSH1 0x20 DUP1 SWAP2 DIV MUL PUSH1 0x20 ADD PUSH1 0x40 MLOAD SWAP1 DUP2 ADD PUSH1 0x40 MSTORE DUP1 SWAP4 SWAP3 SWAP2 SWAP1 DUP2 DUP2 MSTORE PUSH1 0x20 ADD DUP4 DUP4 DUP1 DUP3 DUP5 CALLDATACOPY PUSH0 SWAP3 ADD SWAP2 SWAP1 SWAP2 MSTORE POP PUSH2 0x18C7 SWAP3 POP POP POP JUMP JUMPDEST DUP2 MSTORE PUSH1 0x20 DUP2 ADD SWAP2 SWAP1 SWAP2 MSTORE PUSH1 0x40 ADD PUSH0 KECCAK256 SLOAD SWAP4 SWAP3 POP POP POP JUMP JUMPDEST PUSH0 DUP1 PUSH1 0x1 PUSH0 PUSH2 0xDD0 DUP8 DUP8 DUP1 DUP1 PUSH1 0x1F ADD PUSH1 0x20 DUP1 SWAP2 DIV MUL PUSH1 0x20 ADD PUSH1 0x40 MLOAD SWAP1 DUP2 ADD PUSH1 0x40 MSTORE DUP1 SWAP4 SWAP3 SWAP2 SWAP1 DUP2 DUP2 MSTORE PUSH1 0x20 ADD DUP4 DUP4 DUP1 DUP3 DUP5 CALLDATACOPY PUSH0 SWAP3 ADD SWAP2 SWAP1 SWAP2 MSTORE POP PUSH2 0x18C7 SWAP3 POP POP POP JUMP JUMPDEST DUP2 MSTORE PUSH1 0x20 DUP1 DUP3 ADD SWAP3 SWAP1 SWAP3 MSTORE PUSH1 0x40 SWAP1 DUP2 ADD PUSH0 KECCAK256 DUP2 MLOAD PUSH1 0xE0 DUP2 ADD DUP4 MSTORE DUP2 SLOAD DUP2 MSTORE PUSH1 0x1 DUP3 ADD SLOAD SWAP4 DUP2 ADD SWAP4 SWAP1 SWAP4 MSTORE PUSH1 0x2 DUP2 ADD SLOAD SWAP2 DUP4 ADD SWAP2 SWAP1 SWAP2 MSTORE PUSH1 0x3 DUP2 ADD SLOAD PUSH1 0x1 PUSH1 0x1 PUSH1 0xA0 SHL SUB SWAP1 DUP2 AND PUSH1 0x60 DUP5 ADD MSTORE PUSH1 0x4 SWAP1 SWAP2 ADD SLOAD SWAP1 DUP2 AND PUSH1 0x80 DUP4 ADD MSTORE PUSH1 0xFF PUSH1 0x1 PUSH1 0xA0 SHL DUP3 DIV DUP2 AND ISZERO ISZERO PUSH1 0xA0 DUP5 ADD MSTORE PUSH1 0x1 PUSH1 0xA8 SHL SWAP1 SWAP2 DIV AND ISZERO DUP1 ISZERO PUSH1 0xC0 DUP4 ADD DUP2 SWAP1 MSTORE SWAP2 SWAP3 POP PUSH2 0xE70 JUMPI POP DUP3 PUSH1 0x1 PUSH1 0x1 PUSH1 0xA0 SHL SUB AND DUP2 PUSH1 0x60 ADD MLOAD PUSH1 0x1 PUSH1 0x1 PUSH1 0xA0 SHL SUB AND EQ JUMPDEST SWAP6 SWAP5 POP POP POP POP POP JUMP JUMPDEST PUSH0 DUP1 PUSH1 0x1 PUSH0 PUSH2 0xEBC DUP8 DUP8 DUP1 DUP1 PUSH1 0x1F ADD PUSH1 0x20 DUP1 SWAP2 DIV MUL PUSH1 0x20 ADD PUSH1 0x40 MLOAD SWAP1 DUP2 ADD PUSH1 0x40 MSTORE DUP1 SWAP4 SWAP3 SWAP2 SWAP1 DUP2 DUP2 MSTORE PUSH1 0x20 ADD DUP4 DUP4 DUP1 DUP3 DUP5 CALLDATACOPY PUSH0 SWAP3 ADD SWAP2 SWAP1 SWAP2 MSTORE POP PUSH2 0x18C7 SWAP3 POP POP POP JUMP JUMPDEST DUP2 MSTORE PUSH1 0x20 DUP1 DUP3 ADD SWAP3 SWAP1 SWAP3 MSTORE PUSH1 0x40 SWAP1 DUP2 ADD PUSH0 KECCAK256 DUP2 MLOAD PUSH1 0xE0 DUP2 ADD DUP4 MSTORE DUP2 SLOAD DUP2 MSTORE PUSH1 0x1 DUP3 ADD SLOAD SWAP4 DUP2 ADD SWAP4 SWAP1 SWAP4 MSTORE PUSH1 0x2 DUP2 ADD SLOAD SWAP2 DUP4 ADD SWAP2 SWAP1 SWAP2 MSTORE PUSH1 0x3 DUP2 ADD SLOAD PUSH1 0x1 PUSH1 0x1 PUSH1 0xA0 SHL SUB SWAP1 DUP2 AND PUSH1 0x60 DUP5 ADD MSTORE PUSH1 0x4 SWAP1 SWAP2 ADD SLOAD SWAP1 DUP2 AND PUSH1 0x80 DUP4 ADD MSTORE PUSH1 0xFF PUSH1 0x1 PUSH1 0xA0 SHL DUP3 DIV DUP2 AND ISZERO ISZERO PUSH1 0xA0 DUP5 ADD MSTORE PUSH1 0x1 PUSH1 0xA8 SHL SWAP1 SWAP2 DIV AND ISZERO DUP1 ISZERO PUSH1 0xC0 DUP4 ADD DUP2 SWAP1 MSTORE SWAP2 SWAP3 POP PUSH2 0xF47 JUMPI POP DUP1 MLOAD DUP4 EQ JUMPDEST DUP1 ISZERO PUSH2 0xE70 JUMPI POP PUSH1 0xA0 ADD MLOAD ISZERO SWAP5 SWAP4 POP POP POP POP JUMP JUMPDEST CALLER PUSH0 SWAP1 DUP2 MSTORE PUSH1 0x3 PUSH1 0x20 MSTORE PUSH1 0x40 SWAP1 KECCAK256 SLOAD PUSH1 0xFF AND PUSH2 0xF8C JUMPI PUSH1 0x40 MLOAD PUSH4 0x2EAF1659 PUSH1 0xE1 SHL DUP2 MSTORE CALLER PUSH1 0x4 DUP3 ADD MSTORE PUSH1 0x24 ADD PUSH2 0x538 JUMP JUMPDEST PUSH0 DUP3 SWAP1 SUB PUSH2 0xFAD JUMPI PUSH1 0x40 MLOAD PUSH4 0x72D55675 PUSH1 0xE1 SHL DUP2 MSTORE PUSH1 0x4 ADD PUSH1 0x40 MLOAD DUP1 SWAP2 SUB SWAP1 REVERT JUMPDEST DUP1 PUSH2 0xFCB JUMPI PUSH1 0x40 MLOAD PUSH4 0xB780D61F PUSH1 0xE0 SHL DUP2 MSTORE PUSH1 0x4 ADD PUSH1 0x40 MLOAD DUP1 SWAP2 SUB SWAP1 REVERT JUMPDEST PUSH0 PUSH2 0x100A DUP5 DUP5 DUP1 DUP1 PUSH1 0x1F ADD PUSH1 0x20 DUP1 SWAP2 DIV MUL PUSH1 0x20 ADD PUSH1 0x40 MLOAD SWAP1 DUP2 ADD PUSH1 0x40 MSTORE DUP1 SWAP4 SWAP3 SWAP2 SWAP1 DUP2 DUP2 MSTORE PUSH1 0x20 ADD DUP4 DUP4 DUP1 DUP3 DUP5 CALLDATACOPY PUSH0 SWAP3 ADD SWAP2 SWAP1 SWAP2 MSTORE POP PUSH2 0x18C7 SWAP3 POP POP POP JUMP JUMPDEST PUSH0 DUP2 DUP2 MSTORE PUSH1 0x1 PUSH1 0x20 MSTORE PUSH1 0x40 SWAP1 KECCAK256 PUSH1 0x4 ADD SLOAD SWAP1 SWAP2 POP PUSH1 0x1 PUSH1 0xA8 SHL SWAP1 DIV PUSH1 0xFF AND ISZERO PUSH2 0x104A JUMPI DUP4 DUP4 PUSH1 0x40 MLOAD PUSH4 0x783B79C7 PUSH1 0xE1 SHL DUP2 MSTORE PUSH1 0x4 ADD PUSH2 0x538 SWAP3 SWAP2 SWAP1 PUSH2 0x1D29 JUMP JUMPDEST PUSH0 DUP3 DUP2 MSTORE PUSH1 0x2 PUSH1 0x20 MSTORE PUSH1 0x40 SWAP1 KECCAK256 SLOAD ISZERO PUSH2 0x1079 JUMPI PUSH1 0x40 MLOAD PUSH4 0xD64602D PUSH1 0xE3 SHL DUP2 MSTORE PUSH1 0x4 DUP2 ADD DUP4 SWAP1 MSTORE PUSH1 0x24 ADD PUSH2 0x538 JUMP JUMPDEST PUSH1 0x40 DUP1 MLOAD PUSH1 0xE0 DUP2 ADD DUP3 MSTORE DUP4 DUP2 MSTORE TIMESTAMP PUSH1 0x20 DUP1 DUP4 ADD DUP3 DUP2 MSTORE PUSH0 DUP5 DUP7 ADD DUP2 DUP2 MSTORE CALLER PUSH1 0x60 DUP8 ADD DUP2 DUP2 MSTORE PUSH1 0x80 DUP9 ADD DUP5 DUP2 MSTORE PUSH1 0xA0 DUP10 ADD DUP6 DUP2 MSTORE PUSH1 0x1 PUSH1 0xC0 DUP12 ADD DUP2 DUP2 MSTORE DUP14 DUP9 MSTORE DUP2 DUP11 MSTORE DUP13 DUP9 KECCAK256 SWAP12 MLOAD DUP13 SSTORE SWAP8 MLOAD SWAP1 DUP12 ADD SSTORE SWAP4 MLOAD PUSH1 0x2 DUP1 DUP12 ADD SWAP2 SWAP1 SWAP2 SSTORE SWAP2 MLOAD PUSH1 0x3 DUP11 ADD DUP1 SLOAD PUSH1 0x1 PUSH1 0x1 PUSH1 0xA0 SHL SUB SWAP3 DUP4 AND PUSH1 0x1 PUSH1 0x1 PUSH1 0xA0 SHL SUB NOT SWAP1 SWAP2 AND OR SWAP1 SSTORE SWAP1 MLOAD PUSH1 0x4 SWAP1 SWAP10 ADD DUP1 SLOAD SWAP5 MLOAD SWAP7 MLOAD ISZERO ISZERO PUSH1 0x1 PUSH1 0xA8 SHL MUL PUSH1 0xFF PUSH1 0xA8 SHL NOT SWAP8 ISZERO ISZERO PUSH1 0x1 PUSH1 0xA0 SHL MUL PUSH1 0x1 PUSH1 0x1 PUSH1 0xA8 SHL SUB NOT SWAP1 SWAP7 AND SWAP11 SWAP1 SWAP3 AND SWAP10 SWAP1 SWAP10 OR SWAP4 SWAP1 SWAP4 OR SWAP5 SWAP1 SWAP5 AND SWAP2 SWAP1 SWAP2 OR SWAP1 SWAP6 SSTORE DUP8 DUP2 MSTORE SWAP2 MSTORE DUP4 SWAP1 KECCAK256 DUP5 SWAP1 SSTORE SWAP2 MLOAD PUSH32 0x28E61B172B19C21A8F7E14942EDB886F7FE88D9AB9F48A5CDD6F5156D85B6FC7 SWAP3 PUSH2 0x117B SWAP3 DUP9 SWAP3 DUP9 SWAP3 DUP9 SWAP3 SWAP2 PUSH2 0x1DFD JUMP JUMPDEST PUSH1 0x40 MLOAD DUP1 SWAP2 SUB SWAP1 LOG1 CALLER PUSH0 DUP2 DUP2 MSTORE PUSH1 0x4 PUSH1 0x20 MSTORE PUSH1 0x40 SWAP1 DUP2 SWAP1 KECCAK256 SWAP1 MLOAD DUP5 SWAP2 DUP5 SWAP2 PUSH32 0xB7C2521BC24BCFD4807238D096471841E64DDFD7CB4F35546A07C7992F70979E SWAP2 PUSH2 0x11CA SWAP2 DUP11 SWAP2 DUP11 SWAP2 TIMESTAMP SWAP1 PUSH2 0x1E36 JUMP JUMPDEST PUSH1 0x40 MLOAD DUP1 SWAP2 SUB SWAP1 LOG4 POP POP POP POP JUMP JUMPDEST PUSH0 DUP1 PUSH0 DUP1 PUSH1 0x60 PUSH0 DUP1 PUSH1 0x1 PUSH0 PUSH2 0x1221 DUP13 DUP13 DUP1 DUP1 PUSH1 0x1F ADD PUSH1 0x20 DUP1 SWAP2 DIV MUL PUSH1 0x20 ADD PUSH1 0x40 MLOAD SWAP1 DUP2 ADD PUSH1 0x40 MSTORE DUP1 SWAP4 SWAP3 SWAP2 SWAP1 DUP2 DUP2 MSTORE PUSH1 0x20 ADD DUP4 DUP4 DUP1 DUP3 DUP5 CALLDATACOPY PUSH0 SWAP3 ADD SWAP2 SWAP1 SWAP2 MSTORE POP PUSH2 0x18C7 SWAP3 POP POP POP JUMP JUMPDEST DUP2 MSTORE PUSH1 0x20 DUP1 DUP3 ADD SWAP3 SWAP1 SWAP3 MSTORE PUSH1 0x40 SWAP1 DUP2 ADD PUSH0 KECCAK256 DUP2 MLOAD PUSH1 0xE0 DUP2 ADD DUP4 MSTORE DUP2 SLOAD DUP2 MSTORE PUSH1 0x1 DUP3 ADD SLOAD SWAP4 DUP2 ADD SWAP4 SWAP1 SWAP4 MSTORE PUSH1 0x2 DUP2 ADD SLOAD SWAP2 DUP4 ADD SWAP2 SWAP1 SWAP2 MSTORE PUSH1 0x3 DUP2 ADD SLOAD PUSH1 0x1 PUSH1 0x1 PUSH1 0xA0 SHL SUB SWAP1 DUP2 AND PUSH1 0x60 DUP5 ADD MSTORE PUSH1 0x4 SWAP1 SWAP2 ADD SLOAD SWAP1 DUP2 AND PUSH1 0x80 DUP4 ADD MSTORE PUSH1 0xFF PUSH1 0x1 PUSH1 0xA0 SHL DUP3 DIV DUP2 AND ISZERO ISZERO PUSH1 0xA0 DUP5 ADD MSTORE PUSH1 0x1 PUSH1 0xA8 SHL SWAP1 SWAP2 DIV AND ISZERO DUP1 ISZERO PUSH1 0xC0 DUP4 ADD DUP2 SWAP1 MSTORE SWAP2 SWAP3 POP DUP2 SWAP1 PUSH2 0x12AE JUMPI POP DUP2 MLOAD DUP10 EQ JUMPDEST PUSH1 0xA0 DUP4 ADD MLOAD PUSH1 0x60 DUP5 ADD MLOAD PUSH1 0x1 PUSH1 0x1 PUSH1 0xA0 SHL SUB DUP2 AND PUSH0 SWAP1 DUP2 MSTORE PUSH1 0x4 PUSH1 0x20 SWAP1 DUP2 MSTORE PUSH1 0x40 SWAP1 SWAP2 KECCAK256 SWAP1 DUP7 ADD MLOAD DUP2 SLOAD DUP3 SWAP1 PUSH2 0x12E3 SWAP1 PUSH2 0x1DC5 JUMP JUMPDEST DUP1 PUSH1 0x1F ADD PUSH1 0x20 DUP1 SWAP2 DIV MUL PUSH1 0x20 ADD PUSH1 0x40 MLOAD SWAP1 DUP2 ADD PUSH1 0x40 MSTORE DUP1 SWAP3 SWAP2 SWAP1 DUP2 DUP2 MSTORE PUSH1 0x20 ADD DUP3 DUP1 SLOAD PUSH2 0x130F SWAP1 PUSH2 0x1DC5 JUMP JUMPDEST DUP1 ISZERO PUSH2 0x135A JUMPI DUP1 PUSH1 0x1F LT PUSH2 0x1331 JUMPI PUSH2 0x100 DUP1 DUP4 SLOAD DIV MUL DUP4 MSTORE SWAP2 PUSH1 0x20 ADD SWAP2 PUSH2 0x135A JUMP JUMPDEST DUP3 ADD SWAP2 SWAP1 PUSH0 MSTORE PUSH1 0x20 PUSH0 KECCAK256 SWAP1 JUMPDEST DUP2 SLOAD DUP2 MSTORE SWAP1 PUSH1 0x1 ADD SWAP1 PUSH1 0x20 ADD DUP1 DUP4 GT PUSH2 0x133D JUMPI DUP3 SWAP1 SUB PUSH1 0x1F AND DUP3 ADD SWAP2 JUMPDEST POP POP POP POP POP SWAP2 POP SWAP7 POP SWAP7 POP SWAP7 POP SWAP7 POP SWAP7 POP SWAP7 POP POP SWAP4 SWAP8 POP SWAP4 SWAP8 SWAP2 SWAP6 POP SWAP4 POP JUMP JUMPDEST PUSH0 DUP1 PUSH0 DUP1 PUSH1 0x1 PUSH0 PUSH2 0x13BF DUP9 DUP9 DUP1 DUP1 PUSH1 0x1F ADD PUSH1 0x20 DUP1 SWAP2 DIV MUL PUSH1 0x20 ADD PUSH1 0x40 MLOAD SWAP1 DUP2 ADD PUSH1 0x40 MSTORE DUP1 SWAP4 SWAP3 SWAP2 SWAP1 DUP2 DUP2 MSTORE PUSH1 0x20 ADD DUP4 DUP4 DUP1 DUP3 DUP5 CALLDATACOPY PUSH0 SWAP3 ADD SWAP2 SWAP1 SWAP2 MSTORE POP PUSH2 0x18C7 SWAP3 POP POP POP JUMP JUMPDEST DUP2 MSTORE PUSH1 0x20 DUP1 DUP3 ADD SWAP3 SWAP1 SWAP3 MSTORE PUSH1 0x40 SWAP1 DUP2 ADD PUSH0 KECCAK256 DUP2 MLOAD PUSH1 0xE0 DUP2 ADD DUP4 MSTORE DUP2 SLOAD DUP2 MSTORE PUSH1 0x1 DUP3 ADD SLOAD SWAP4 DUP2 ADD SWAP4 SWAP1 SWAP4 MSTORE PUSH1 0x2 DUP2 ADD SLOAD SWAP2 DUP4 ADD DUP3 SWAP1 MSTORE PUSH1 0x3 DUP2 ADD SLOAD PUSH1 0x1 PUSH1 0x1 PUSH1 0xA0 SHL SUB SWAP1 DUP2 AND PUSH1 0x60 DUP6 ADD MSTORE PUSH1 0x4 SWAP1 SWAP2 ADD SLOAD SWAP1 DUP2 AND PUSH1 0x80 DUP5 ADD DUP2 SWAP1 MSTORE PUSH1 0xFF PUSH1 0x1 PUSH1 0xA0 SHL DUP4 DIV DUP2 AND ISZERO ISZERO PUSH1 0xA0 DUP7 ADD DUP2 SWAP1 MSTORE PUSH1 0x1 PUSH1 0xA8 SHL SWAP1 SWAP4 DIV AND ISZERO ISZERO PUSH1 0xC0 SWAP1 SWAP5 ADD SWAP4 SWAP1 SWAP4 MSTORE SWAP6 POP SWAP4 POP SWAP2 POP POP SWAP3 POP SWAP3 POP SWAP3 JUMP JUMPDEST PUSH1 0x40 DUP1 MLOAD PUSH2 0x100 DUP2 ADD DUP3 MSTORE PUSH1 0x60 DUP1 DUP3 MSTORE PUSH0 PUSH1 0x20 DUP4 ADD DUP2 SWAP1 MSTORE SWAP3 DUP3 ADD DUP4 SWAP1 MSTORE DUP2 ADD DUP3 SWAP1 MSTORE PUSH1 0x80 DUP2 ADD DUP3 SWAP1 MSTORE PUSH1 0xA0 DUP2 ADD DUP3 SWAP1 MSTORE PUSH1 0xC0 DUP2 ADD DUP3 SWAP1 MSTORE PUSH1 0xE0 DUP2 ADD SWAP2 SWAP1 SWAP2 MSTORE PUSH0 PUSH1 0x1 PUSH0 PUSH2 0x14D1 DUP7 DUP7 DUP1 DUP1 PUSH1 0x1F ADD PUSH1 0x20 DUP1 SWAP2 DIV MUL PUSH1 0x20 ADD PUSH1 0x40 MLOAD SWAP1 DUP2 ADD PUSH1 0x40 MSTORE DUP1 SWAP4 SWAP3 SWAP2 SWAP1 DUP2 DUP2 MSTORE PUSH1 0x20 ADD DUP4 DUP4 DUP1 DUP3 DUP5 CALLDATACOPY PUSH0 SWAP3 ADD SWAP2 SWAP1 SWAP2 MSTORE POP PUSH2 0x18C7 SWAP3 POP POP POP JUMP JUMPDEST DUP2 MSTORE PUSH1 0x20 DUP1 DUP3 ADD SWAP3 SWAP1 SWAP3 MSTORE PUSH1 0x40 SWAP1 DUP2 ADD PUSH0 KECCAK256 DUP2 MLOAD PUSH1 0xE0 DUP2 ADD DUP4 MSTORE DUP2 SLOAD DUP2 MSTORE PUSH1 0x1 DUP3 ADD SLOAD SWAP4 DUP2 ADD SWAP4 SWAP1 SWAP4 MSTORE PUSH1 0x2 DUP2 ADD SLOAD DUP4 DUP4 ADD MSTORE PUSH1 0x3 DUP2 ADD SLOAD PUSH1 0x1 PUSH1 0x1 PUSH1 0xA0 SHL SUB SWAP1 DUP2 AND PUSH1 0x60 DUP6 ADD MSTORE PUSH1 0x4 SWAP1 SWAP2 ADD SLOAD SWAP1 DUP2 AND PUSH1 0x80 DUP5 ADD MSTORE PUSH1 0xFF PUSH1 0x1 PUSH1 0xA0 SHL DUP3 DIV DUP2 AND ISZERO ISZERO PUSH1 0xA0 DUP6 ADD MSTORE PUSH1 0x1 PUSH1 0xA8 SHL SWAP1 SWAP2 DIV AND ISZERO ISZERO PUSH1 0xC0 DUP4 ADD SWAP1 DUP2 MSTORE DUP2 MLOAD PUSH2 0x100 DUP2 ADD SWAP1 SWAP3 MSTORE MLOAD SWAP2 SWAP3 POP SWAP1 DUP2 SWAP1 PUSH2 0x1574 JUMPI PUSH1 0x40 MLOAD DUP1 PUSH1 0x20 ADD PUSH1 0x40 MSTORE DUP1 PUSH0 DUP2 MSTORE POP PUSH2 0x15AA JUMP JUMPDEST DUP6 DUP6 DUP1 DUP1 PUSH1 0x1F ADD PUSH1 0x20 DUP1 SWAP2 DIV MUL PUSH1 0x20 ADD PUSH1 0x40 MLOAD SWAP1 DUP2 ADD PUSH1 0x40 MSTORE DUP1 SWAP4 SWAP3 SWAP2 SWAP1 DUP2 DUP2 MSTORE PUSH1 0x20 ADD DUP4 DUP4 DUP1 DUP3 DUP5 CALLDATACOPY PUSH0 SWAP3 ADD SWAP2 SWAP1 SWAP2 MSTORE POP POP POP POP JUMPDEST DUP2 MSTORE PUSH1 0x20 ADD DUP3 PUSH0 ADD MLOAD DUP2 MSTORE PUSH1 0x20 ADD DUP3 PUSH1 0x60 ADD MLOAD PUSH1 0x1 PUSH1 0x1 PUSH1 0xA0 SHL SUB AND DUP2 MSTORE PUSH1 0x20 ADD DUP3 PUSH1 0x20 ADD MLOAD DUP2 MSTORE PUSH1 0x20 ADD DUP3 PUSH1 0xA0 ADD MLOAD ISZERO ISZERO DUP2 MSTORE PUSH1 0x20 ADD DUP3 PUSH1 0x40 ADD MLOAD DUP2 MSTORE PUSH1 0x20 ADD DUP3 PUSH1 0x80 ADD MLOAD PUSH1 0x1 PUSH1 0x1 PUSH1 0xA0 SHL SUB AND DUP2 MSTORE PUSH1 0x20 ADD DUP3 PUSH1 0xC0 ADD MLOAD ISZERO ISZERO DUP2 MSTORE POP SWAP2 POP POP SWAP3 SWAP2 POP POP JUMP JUMPDEST PUSH2 0x1619 PUSH2 0x176A JUMP JUMPDEST PUSH1 0x1 PUSH1 0x1 PUSH1 0xA0 SHL SUB DUP4 AND PUSH2 0x164A JUMPI PUSH1 0x40 MLOAD PUSH3 0x8A35A3 PUSH1 0xE6 SHL DUP2 MSTORE PUSH1 0x1 PUSH1 0x1 PUSH1 0xA0 SHL SUB DUP5 AND PUSH1 0x4 DUP3 ADD MSTORE PUSH1 0x24 ADD PUSH2 0x538 JUMP JUMPDEST PUSH0 DUP2 SWAP1 SUB PUSH2 0x166A JUMPI PUSH1 0x40 MLOAD PUSH3 0xC17A0F PUSH1 0xE1 SHL DUP2 MSTORE PUSH1 0x4 ADD PUSH1 0x40 MLOAD DUP1 SWAP2 SUB SWAP1 REVERT JUMPDEST PUSH1 0x1 PUSH1 0x1 PUSH1 0xA0 SHL SUB DUP4 AND PUSH0 SWAP1 DUP2 MSTORE PUSH1 0x4 PUSH1 0x20 MSTORE PUSH1 0x40 SWAP1 KECCAK256 DUP1 PUSH2 0x168D DUP4 DUP6 DUP4 PUSH2 0x1F36 JUMP JUMPDEST POP PUSH1 0x3 DUP2 ADD DUP1 SLOAD PUSH1 0xFF NOT AND PUSH1 0x1 OR SWAP1 SSTORE PUSH1 0x40 MLOAD PUSH1 0x1 PUSH1 0x1 PUSH1 0xA0 SHL SUB DUP6 AND SWAP1 PUSH32 0xBD1F3018BB9FA72391391CD21D590D8A867473039A937C32EBCA3D0386775254 SWAP1 PUSH2 0x16DC SWAP1 DUP7 SWAP1 DUP7 SWAP1 TIMESTAMP SWAP1 PUSH2 0x1FF0 JUMP JUMPDEST PUSH1 0x40 MLOAD DUP1 SWAP2 SUB SWAP1 LOG2 POP POP POP POP JUMP JUMPDEST PUSH0 PUSH2 0x1729 DUP4 DUP4 DUP1 DUP1 PUSH1 0x1F ADD PUSH1 0x20 DUP1 SWAP2 DIV MUL PUSH1 0x20 ADD PUSH1 0x40 MLOAD SWAP1 DUP2 ADD PUSH1 0x40 MSTORE DUP1 SWAP4 SWAP3 SWAP2 SWAP1 DUP2 DUP2 MSTORE PUSH1 0x20 ADD DUP4 DUP4 DUP1 DUP3 DUP5 CALLDATACOPY PUSH0 SWAP3 ADD SWAP2 SWAP1 SWAP2 MSTORE POP PUSH2 0x18C7 SWAP3 POP POP POP JUMP JUMPDEST SWAP4 SWAP3 POP POP POP JUMP JUMPDEST PUSH2 0x1738 PUSH2 0x176A JUMP JUMPDEST PUSH1 0x1 PUSH1 0x1 PUSH1 0xA0 SHL SUB DUP2 AND PUSH2 0x1761 JUMPI PUSH1 0x40 MLOAD PUSH4 0x1E4FBDF7 PUSH1 0xE0 SHL DUP2 MSTORE PUSH0 PUSH1 0x4 DUP3 ADD MSTORE PUSH1 0x24 ADD PUSH2 0x538 JUMP JUMPDEST PUSH2 0x500 DUP2 PUSH2 0x18D2 JUMP JUMPDEST PUSH0 SLOAD PUSH1 0x1 PUSH1 0x1 PUSH1 0xA0 SHL SUB AND CALLER EQ PUSH2 0x8F8 JUMPI PUSH1 0x40 MLOAD PUSH4 0x118CDAA7 PUSH1 0xE0 SHL DUP2 MSTORE CALLER PUSH1 0x4 DUP3 ADD MSTORE PUSH1 0x24 ADD PUSH2 0x538 JUMP JUMPDEST PUSH1 0x1 PUSH1 0x1 PUSH1 0xA0 SHL SUB DUP3 AND PUSH2 0x17C7 JUMPI PUSH1 0x40 MLOAD PUSH3 0x8A35A3 PUSH1 0xE6 SHL DUP2 MSTORE PUSH1 0x1 PUSH1 0x1 PUSH1 0xA0 SHL SUB DUP4 AND PUSH1 0x4 DUP3 ADD MSTORE PUSH1 0x24 ADD PUSH2 0x538 JUMP JUMPDEST PUSH1 0x1 PUSH1 0x1 PUSH1 0xA0 SHL SUB DUP3 AND PUSH0 SWAP1 DUP2 MSTORE PUSH1 0x3 PUSH1 0x20 DUP2 DUP2 MSTORE PUSH1 0x40 DUP1 DUP5 KECCAK256 DUP1 SLOAD PUSH1 0xFF NOT AND PUSH1 0x1 OR SWAP1 SSTORE PUSH1 0x4 SWAP1 SWAP2 MSTORE SWAP1 SWAP2 KECCAK256 SWAP1 DUP2 ADD SLOAD PUSH1 0xFF AND ISZERO DUP1 PUSH2 0x1809 JUMPI POP PUSH1 0x1 DUP2 ADD SLOAD ISZERO JUMPDEST ISZERO PUSH2 0x1815 JUMPI TIMESTAMP PUSH1 0x1 DUP3 ADD SSTORE JUMPDEST PUSH0 PUSH1 0x2 DUP3 ADD SSTORE PUSH1 0x3 DUP2 ADD DUP1 SLOAD PUSH1 0xFF NOT AND PUSH1 0x1 OR SWAP1 SSTORE DUP2 MLOAD ISZERO PUSH2 0x1881 JUMPI DUP1 PUSH2 0x183C DUP4 DUP3 PUSH2 0x2013 JUMP JUMPDEST POP DUP3 PUSH1 0x1 PUSH1 0x1 PUSH1 0xA0 SHL SUB AND PUSH32 0xBD1F3018BB9FA72391391CD21D590D8A867473039A937C32EBCA3D0386775254 DUP4 TIMESTAMP PUSH1 0x40 MLOAD PUSH2 0x1878 SWAP3 SWAP2 SWAP1 PUSH2 0x20D3 JUMP JUMPDEST PUSH1 0x40 MLOAD DUP1 SWAP2 SUB SWAP1 LOG2 JUMPDEST PUSH1 0x40 DUP1 MLOAD PUSH1 0x1 PUSH1 0x1 PUSH1 0xA0 SHL SUB DUP6 AND DUP2 MSTORE TIMESTAMP PUSH1 0x20 DUP3 ADD MSTORE PUSH32 0xA0D402B55B358DFAC53C7D1B3EF26F4E07D706AD2CAB4E9540094020EE9A1D99 SWAP2 ADD PUSH1 0x40 MLOAD DUP1 SWAP2 SUB SWAP1 LOG1 POP POP POP JUMP JUMPDEST DUP1 MLOAD PUSH1 0x20 SWAP1 SWAP2 ADD KECCAK256 SWAP1 JUMP JUMPDEST PUSH0 DUP1 SLOAD PUSH1 0x1 PUSH1 0x1 PUSH1 0xA0 SHL SUB DUP4 DUP2 AND PUSH1 0x1 PUSH1 0x1 PUSH1 0xA0 SHL SUB NOT DUP4 AND DUP2 OR DUP5 SSTORE PUSH1 0x40 MLOAD SWAP2 SWAP1 SWAP3 AND SWAP3 DUP4 SWAP2 PUSH32 0x8BE0079C531659141344CD1FD0A4F28419497F9722A3DAAFE3B4186F6B6457E0 SWAP2 SWAP1 LOG3 POP POP JUMP JUMPDEST DUP1 CALLDATALOAD PUSH1 0x1 PUSH1 0x1 PUSH1 0xA0 SHL SUB DUP2 AND DUP2 EQ PUSH2 0x1937 JUMPI PUSH0 DUP1 REVERT JUMPDEST SWAP2 SWAP1 POP JUMP JUMPDEST PUSH0 DUP1 DUP4 PUSH1 0x1F DUP5 ADD SLT PUSH2 0x194C JUMPI PUSH0 DUP1 REVERT JUMPDEST POP DUP2 CALLDATALOAD PUSH8 0xFFFFFFFFFFFFFFFF DUP2 GT ISZERO PUSH2 0x1963 JUMPI PUSH0 DUP1 REVERT JUMPDEST PUSH1 0x20 DUP4 ADD SWAP2 POP DUP4 PUSH1 0x20 DUP3 DUP6 ADD ADD GT ISZERO PUSH2 0x197A JUMPI PUSH0 DUP1 REVERT JUMPDEST SWAP3 POP SWAP3 SWAP1 POP JUMP JUMPDEST PUSH0 DUP1 PUSH0 PUSH1 0x40 DUP5 DUP7 SUB SLT ISZERO PUSH2 0x1993 JUMPI PUSH0 DUP1 REVERT JUMPDEST PUSH2 0x199C DUP5 PUSH2 0x1921 JUMP JUMPDEST SWAP3 POP PUSH1 0x20 DUP5 ADD CALLDATALOAD PUSH8 0xFFFFFFFFFFFFFFFF DUP2 GT ISZERO PUSH2 0x19B7 JUMPI PUSH0 DUP1 REVERT JUMPDEST PUSH2 0x19C3 DUP7 DUP3 DUP8 ADD PUSH2 0x193C JUMP JUMPDEST SWAP5 SWAP8 SWAP1 SWAP7 POP SWAP4 SWAP5 POP POP POP POP JUMP JUMPDEST PUSH0 PUSH1 0x20 DUP3 DUP5 SUB SLT ISZERO PUSH2 0x19E0 JUMPI PUSH0 DUP1 REVERT JUMPDEST PUSH2 0x1729 DUP3 PUSH2 0x1921 JUMP JUMPDEST PUSH0 DUP1 PUSH1 0x20 DUP4 DUP6 SUB SLT ISZERO PUSH2 0x19FA JUMPI PUSH0 DUP1 REVERT JUMPDEST DUP3 CALLDATALOAD PUSH8 0xFFFFFFFFFFFFFFFF DUP2 GT ISZERO PUSH2 0x1A10 JUMPI PUSH0 DUP1 REVERT JUMPDEST PUSH2 0x1A1C DUP6 DUP3 DUP7 ADD PUSH2 0x193C JUMP JUMPDEST SWAP1 SWAP7 SWAP1 SWAP6 POP SWAP4 POP POP POP POP JUMP JUMPDEST PUSH0 PUSH1 0x20 DUP3 DUP5 SUB SLT ISZERO PUSH2 0x1A38 JUMPI PUSH0 DUP1 REVERT JUMPDEST POP CALLDATALOAD SWAP2 SWAP1 POP JUMP JUMPDEST PUSH0 DUP2 MLOAD DUP1 DUP5 MSTORE PUSH0 JUMPDEST DUP2 DUP2 LT ISZERO PUSH2 0x1A63 JUMPI PUSH1 0x20 DUP2 DUP6 ADD DUP2 ADD MLOAD DUP7 DUP4 ADD DUP3 ADD MSTORE ADD PUSH2 0x1A47 JUMP JUMPDEST POP PUSH0 PUSH1 0x20 DUP3 DUP7 ADD ADD MSTORE PUSH1 0x20 PUSH1 0x1F NOT PUSH1 0x1F DUP4 ADD AND DUP6 ADD ADD SWAP2 POP POP SWAP3 SWAP2 POP POP JUMP JUMPDEST PUSH1 0x20 DUP2 MSTORE PUSH0 DUP3 MLOAD PUSH2 0x160 DUP1 PUSH1 0x20 DUP6 ADD MSTORE PUSH2 0x1AA0 PUSH2 0x180 DUP6 ADD DUP4 PUSH2 0x1A3F JUMP JUMPDEST SWAP2 POP PUSH1 0x20 DUP6 ADD MLOAD PUSH1 0x40 DUP6 ADD MSTORE PUSH1 0x40 DUP6 ADD MLOAD PUSH2 0x1AC6 PUSH1 0x60 DUP7 ADD DUP3 PUSH1 0x1 PUSH1 0x1 PUSH1 0xA0 SHL SUB AND SWAP1 MSTORE JUMP JUMPDEST POP PUSH1 0x60 DUP6 ADD MLOAD DUP5 DUP4 SUB PUSH1 0x1F NOT ADD PUSH1 0x80 DUP7 ADD MSTORE PUSH2 0x1AE2 DUP4 DUP3 PUSH2 0x1A3F JUMP JUMPDEST SWAP3 POP POP PUSH1 0x80 DUP6 ADD MLOAD PUSH1 0xA0 DUP6 ADD MSTORE PUSH1 0xA0 DUP6 ADD MLOAD PUSH2 0x1B02 PUSH1 0xC0 DUP7 ADD DUP3 ISZERO ISZERO SWAP1 MSTORE JUMP JUMPDEST POP PUSH1 0xC0 DUP6 ADD MLOAD DUP1 ISZERO ISZERO PUSH1 0xE0 DUP7 ADD MSTORE POP PUSH1 0xE0 DUP6 ADD MLOAD PUSH2 0x100 DUP6 DUP2 ADD SWAP2 SWAP1 SWAP2 MSTORE DUP6 ADD MLOAD PUSH2 0x120 PUSH2 0x1B3A DUP2 DUP8 ADD DUP4 PUSH1 0x1 PUSH1 0x1 PUSH1 0xA0 SHL SUB AND SWAP1 MSTORE JUMP JUMPDEST DUP7 ADD MLOAD SWAP1 POP PUSH2 0x140 PUSH2 0x1B4F DUP7 DUP3 ADD DUP4 ISZERO ISZERO SWAP1 MSTORE JUMP JUMPDEST DUP7 ADD MLOAD DUP1 ISZERO ISZERO DUP4 DUP8 ADD MSTORE SWAP1 POP JUMPDEST POP SWAP1 SWAP5 SWAP4 POP POP POP POP JUMP JUMPDEST DUP5 ISZERO ISZERO DUP2 MSTORE PUSH1 0x80 PUSH1 0x20 DUP3 ADD MSTORE PUSH0 PUSH2 0x1B80 PUSH1 0x80 DUP4 ADD DUP7 PUSH2 0x1A3F JUMP JUMPDEST PUSH1 0x40 DUP4 ADD SWAP5 SWAP1 SWAP5 MSTORE POP PUSH1 0x60 ADD MSTORE SWAP3 SWAP2 POP POP JUMP JUMPDEST PUSH0 DUP1 PUSH0 PUSH1 0x40 DUP5 DUP7 SUB SLT ISZERO PUSH2 0x1BA5 JUMPI PUSH0 DUP1 REVERT JUMPDEST DUP4 CALLDATALOAD PUSH8 0xFFFFFFFFFFFFFFFF DUP2 GT ISZERO PUSH2 0x1BBB JUMPI PUSH0 DUP1 REVERT JUMPDEST PUSH2 0x1BC7 DUP7 DUP3 DUP8 ADD PUSH2 0x193C JUMP JUMPDEST SWAP1 SWAP5 POP SWAP3 POP PUSH2 0x1BDA SWAP1 POP PUSH1 0x20 DUP6 ADD PUSH2 0x1921 JUMP JUMPDEST SWAP1 POP SWAP3 POP SWAP3 POP SWAP3 JUMP JUMPDEST PUSH0 DUP1 PUSH0 PUSH1 0x40 DUP5 DUP7 SUB SLT ISZERO PUSH2 0x1BF5 JUMPI PUSH0 DUP1 REVERT JUMPDEST DUP4 CALLDATALOAD PUSH8 0xFFFFFFFFFFFFFFFF DUP2 GT ISZERO PUSH2 0x1C0B JUMPI PUSH0 DUP1 REVERT JUMPDEST PUSH2 0x1C17 DUP7 DUP3 DUP8 ADD PUSH2 0x193C JUMP JUMPDEST SWAP1 SWAP8 SWAP1 SWAP7 POP PUSH1 0x20 SWAP6 SWAP1 SWAP6 ADD CALLDATALOAD SWAP5 SWAP4 POP POP POP POP JUMP JUMPDEST DUP7 ISZERO ISZERO DUP2 MSTORE DUP6 ISZERO ISZERO PUSH1 0x20 DUP3 ADD MSTORE DUP5 ISZERO ISZERO PUSH1 0x40 DUP3 ADD MSTORE PUSH1 0x1 PUSH1 0x1 PUSH1 0xA0 SHL SUB DUP5 AND PUSH1 0x60 DUP3 ADD MSTORE PUSH1 0xC0 PUSH1 0x80 DUP3 ADD DUP2 SWAP1 MSTORE PUSH0 SWAP1 PUSH2 0x1C66 SWAP1 DUP4 ADD DUP6 PUSH2 0x1A3F JUMP JUMPDEST SWAP1 POP DUP3 PUSH1 0xA0 DUP4 ADD MSTORE SWAP8 SWAP7 POP POP POP POP POP POP POP JUMP JUMPDEST PUSH1 0x20 DUP2 MSTORE PUSH0 DUP3 MLOAD PUSH2 0x100 DUP1 PUSH1 0x20 DUP6 ADD MSTORE PUSH2 0x1C97 PUSH2 0x120 DUP6 ADD DUP4 PUSH2 0x1A3F JUMP JUMPDEST SWAP2 POP PUSH1 0x20 DUP6 ADD MLOAD PUSH1 0x40 DUP6 ADD MSTORE PUSH1 0x1 DUP1 PUSH1 0xA0 SHL SUB PUSH1 0x40 DUP7 ADD MLOAD AND PUSH1 0x60 DUP6 ADD MSTORE PUSH1 0x60 DUP6 ADD MLOAD PUSH1 0x80 DUP6 ADD MSTORE PUSH1 0x80 DUP6 ADD MLOAD ISZERO ISZERO PUSH1 0xA0 DUP6 ADD MSTORE PUSH1 0xA0 DUP6 ADD MLOAD PUSH1 0xC0 DUP6 ADD MSTORE PUSH1 0xC0 DUP6 ADD MLOAD PUSH2 0x1CEF PUSH1 0xE0 DUP7 ADD DUP3 PUSH1 0x1 PUSH1 0x1 PUSH1 0xA0 SHL SUB AND SWAP1 MSTORE JUMP JUMPDEST POP PUSH1 0xE0 DUP6 ADD MLOAD DUP1 ISZERO ISZERO DUP6 DUP4 ADD MSTORE PUSH2 0x1B5C JUMP JUMPDEST DUP2 DUP4 MSTORE DUP2 DUP2 PUSH1 0x20 DUP6 ADD CALLDATACOPY POP PUSH0 DUP3 DUP3 ADD PUSH1 0x20 SWAP1 DUP2 ADD SWAP2 SWAP1 SWAP2 MSTORE PUSH1 0x1F SWAP1 SWAP2 ADD PUSH1 0x1F NOT AND SWAP1 SWAP2 ADD ADD SWAP1 JUMP JUMPDEST PUSH1 0x20 DUP2 MSTORE PUSH0 PUSH2 0x1D3C PUSH1 0x20 DUP4 ADD DUP5 DUP7 PUSH2 0x1D01 JUMP JUMPDEST SWAP5 SWAP4 POP POP POP POP JUMP JUMPDEST PUSH1 0x1 PUSH1 0x1 PUSH1 0xA0 SHL SUB DUP5 AND DUP2 MSTORE PUSH1 0x40 PUSH1 0x20 DUP3 ADD DUP2 SWAP1 MSTORE PUSH0 SWAP1 PUSH2 0xE70 SWAP1 DUP4 ADD DUP5 DUP7 PUSH2 0x1D01 JUMP JUMPDEST PUSH1 0x80 DUP2 MSTORE PUSH0 PUSH2 0x1D7B PUSH1 0x80 DUP4 ADD DUP8 DUP10 PUSH2 0x1D01 JUMP JUMPDEST PUSH1 0x1 PUSH1 0x1 PUSH1 0xA0 SHL SUB SWAP6 DUP7 AND PUSH1 0x20 DUP5 ADD MSTORE SWAP4 SWAP1 SWAP5 AND PUSH1 0x40 DUP3 ADD MSTORE PUSH1 0x60 ADD MSTORE SWAP4 SWAP3 POP POP POP JUMP JUMPDEST PUSH1 0x60 DUP2 MSTORE PUSH0 PUSH2 0x1DB2 PUSH1 0x60 DUP4 ADD DUP7 DUP9 PUSH2 0x1D01 JUMP JUMPDEST PUSH1 0x20 DUP4 ADD SWAP5 SWAP1 SWAP5 MSTORE POP PUSH1 0x40 ADD MSTORE SWAP3 SWAP2 POP POP JUMP JUMPDEST PUSH1 0x1 DUP2 DUP2 SHR SWAP1 DUP3 AND DUP1 PUSH2 0x1DD9 JUMPI PUSH1 0x7F DUP3 AND SWAP2 POP JUMPDEST PUSH1 0x20 DUP3 LT DUP2 SUB PUSH2 0x1DF7 JUMPI PUSH4 0x4E487B71 PUSH1 0xE0 SHL PUSH0 MSTORE PUSH1 0x22 PUSH1 0x4 MSTORE PUSH1 0x24 PUSH0 REVERT JUMPDEST POP SWAP2 SWAP1 POP JUMP JUMPDEST PUSH1 0x80 DUP2 MSTORE PUSH0 PUSH2 0x1E10 PUSH1 0x80 DUP4 ADD DUP8 DUP10 PUSH2 0x1D01 JUMP JUMPDEST PUSH1 0x20 DUP4 ADD SWAP6 SWAP1 SWAP6 MSTORE POP PUSH1 0x1 PUSH1 0x1 PUSH1 0xA0 SHL SUB SWAP3 SWAP1 SWAP3 AND PUSH1 0x40 DUP4 ADD MSTORE PUSH1 0x60 SWAP1 SWAP2 ADD MSTORE SWAP3 SWAP2 POP POP JUMP JUMPDEST PUSH1 0x60 DUP2 MSTORE PUSH0 PUSH2 0x1E49 PUSH1 0x60 DUP4 ADD DUP7 DUP9 PUSH2 0x1D01 JUMP JUMPDEST PUSH1 0x20 DUP4 DUP3 SUB DUP2 DUP6 ADD MSTORE PUSH0 DUP7 SLOAD PUSH2 0x1E5E DUP2 PUSH2 0x1DC5 JUMP JUMPDEST DUP1 DUP6 MSTORE PUSH1 0x1 DUP3 DUP2 AND DUP1 ISZERO PUSH2 0x1E79 JUMPI PUSH1 0x1 DUP2 EQ PUSH2 0x1E93 JUMPI PUSH2 0x1EBE JUMP JUMPDEST PUSH1 0xFF NOT DUP5 AND DUP8 DUP8 ADD MSTORE DUP3 ISZERO ISZERO PUSH1 0x5 SHL DUP8 ADD DUP7 ADD SWAP5 POP PUSH2 0x1EBE JUMP JUMPDEST DUP11 PUSH0 MSTORE DUP6 PUSH0 KECCAK256 PUSH0 JUMPDEST DUP5 DUP2 LT ISZERO PUSH2 0x1EB6 JUMPI DUP2 SLOAD DUP10 DUP3 ADD DUP10 ADD MSTORE SWAP1 DUP4 ADD SWAP1 DUP8 ADD PUSH2 0x1E9B JUMP JUMPDEST DUP9 ADD DUP8 ADD SWAP6 POP POP JUMPDEST POP POP POP POP DUP1 SWAP4 POP POP POP POP DUP3 PUSH1 0x40 DUP4 ADD MSTORE SWAP6 SWAP5 POP POP POP POP POP JUMP JUMPDEST PUSH4 0x4E487B71 PUSH1 0xE0 SHL PUSH0 MSTORE PUSH1 0x41 PUSH1 0x4 MSTORE PUSH1 0x24 PUSH0 REVERT JUMPDEST PUSH1 0x1F DUP3 GT ISZERO PUSH2 0x476 JUMPI DUP1 PUSH0 MSTORE PUSH1 0x20 PUSH0 KECCAK256 PUSH1 0x1F DUP5 ADD PUSH1 0x5 SHR DUP2 ADD PUSH1 0x20 DUP6 LT ISZERO PUSH2 0x1F10 JUMPI POP DUP1 JUMPDEST PUSH1 0x1F DUP5 ADD PUSH1 0x5 SHR DUP3 ADD SWAP2 POP JUMPDEST DUP2 DUP2 LT ISZERO PUSH2 0x1F2F JUMPI PUSH0 DUP2 SSTORE PUSH1 0x1 ADD PUSH2 0x1F1C JUMP JUMPDEST POP POP POP POP POP JUMP JUMPDEST PUSH8 0xFFFFFFFFFFFFFFFF DUP4 GT ISZERO PUSH2 0x1F4E JUMPI PUSH2 0x1F4E PUSH2 0x1ED7 JUMP JUMPDEST PUSH2 0x1F62 DUP4 PUSH2 0x1F5C DUP4 SLOAD PUSH2 0x1DC5 JUMP JUMPDEST DUP4 PUSH2 0x1EEB JUMP JUMPDEST PUSH0 PUSH1 0x1F DUP5 GT PUSH1 0x1 DUP2 EQ PUSH2 0x1F93 JUMPI PUSH0 DUP6 ISZERO PUSH2 0x1F7C JUMPI POP DUP4 DUP3 ADD CALLDATALOAD JUMPDEST PUSH0 NOT PUSH1 0x3 DUP8 SWAP1 SHL SHR NOT AND PUSH1 0x1 DUP7 SWAP1 SHL OR DUP4 SSTORE PUSH2 0x1F2F JUMP JUMPDEST PUSH0 DUP4 DUP2 MSTORE PUSH1 0x20 DUP2 KECCAK256 PUSH1 0x1F NOT DUP8 AND SWAP2 JUMPDEST DUP3 DUP2 LT ISZERO PUSH2 0x1FC2 JUMPI DUP7 DUP6 ADD CALLDATALOAD DUP3 SSTORE PUSH1 0x20 SWAP5 DUP6 ADD SWAP5 PUSH1 0x1 SWAP1 SWAP3 ADD SWAP2 ADD PUSH2 0x1FA2 JUMP JUMPDEST POP DUP7 DUP3 LT ISZERO PUSH2 0x1FDE JUMPI PUSH0 NOT PUSH1 0xF8 DUP9 PUSH1 0x3 SHL AND SHR NOT DUP5 DUP8 ADD CALLDATALOAD AND DUP2 SSTORE JUMPDEST POP POP PUSH1 0x1 DUP6 PUSH1 0x1 SHL ADD DUP4 SSTORE POP POP POP POP POP JUMP JUMPDEST PUSH1 0x40 DUP2 MSTORE PUSH0 PUSH2 0x2003 PUSH1 0x40 DUP4 ADD DUP6 DUP8 PUSH2 0x1D01 JUMP JUMPDEST SWAP1 POP DUP3 PUSH1 0x20 DUP4 ADD MSTORE SWAP5 SWAP4 POP POP POP POP JUMP JUMPDEST DUP2 MLOAD PUSH8 0xFFFFFFFFFFFFFFFF DUP2 GT ISZERO PUSH2 0x202D JUMPI PUSH2 0x202D PUSH2 0x1ED7 JUMP JUMPDEST PUSH2 0x2041 DUP2 PUSH2 0x203B DUP5 SLOAD PUSH2 0x1DC5 JUMP JUMPDEST DUP5 PUSH2 0x1EEB JUMP JUMPDEST PUSH1 0x20 DUP1 PUSH1 0x1F DUP4 GT PUSH1 0x1 DUP2 EQ PUSH2 0x2074 JUMPI PUSH0 DUP5 ISZERO PUSH2 0x205D JUMPI POP DUP6 DUP4 ADD MLOAD JUMPDEST PUSH0 NOT PUSH1 0x3 DUP7 SWAP1 SHL SHR NOT AND PUSH1 0x1 DUP6 SWAP1 SHL OR DUP6 SSTORE PUSH2 0x20CB JUMP JUMPDEST PUSH0 DUP6 DUP2 MSTORE PUSH1 0x20 DUP2 KECCAK256 PUSH1 0x1F NOT DUP7 AND SWAP2 JUMPDEST DUP3 DUP2 LT ISZERO PUSH2 0x20A2 JUMPI DUP9 DUP7 ADD MLOAD DUP3 SSTORE SWAP5 DUP5 ADD SWAP5 PUSH1 0x1 SWAP1 SWAP2 ADD SWAP1 DUP5 ADD PUSH2 0x2083 JUMP JUMPDEST POP DUP6 DUP3 LT ISZERO PUSH2 0x20BF JUMPI DUP8 DUP6 ADD MLOAD PUSH0 NOT PUSH1 0x3 DUP9 SWAP1 SHL PUSH1 0xF8 AND SHR NOT AND DUP2 SSTORE JUMPDEST POP POP PUSH1 0x1 DUP5 PUSH1 0x1 SHL ADD DUP6 SSTORE JUMPDEST POP POP POP POP POP POP JUMP JUMPDEST PUSH1 0x40 DUP2 MSTORE PUSH0 PUSH2 0x20E5 PUSH1 0x40 DUP4 ADD DUP6 PUSH2 0x1A3F JUMP JUMPDEST SWAP1 POP DUP3 PUSH1 0x20 DUP4 ADD MSTORE SWAP4 SWAP3 POP POP POP JUMP INVALID LOG2 PUSH5 0x6970667358 0x22 SLT KECCAK256 DUP9 CREATE2 LT SWAP5 BALANCE ADDRESS CALLDATACOPY PUSH23 0xFE896A09AE0BDE606B5C123B7CF1B1A22FD232B541C11C 0xC0 PUSH5 0x736F6C6343 STOP ADDMOD XOR STOP CALLER "},"methodIdentifiers":{"anchorCredential(string,bytes32)":"a9b82529","authorizeIssuer(address)":"436693d5","authorizeIssuerWithName(address,string)":"202c3133","credentialExists(string)":"4e7692bb","credentialHashExists(bytes32)":"48870b7a","getCredential(string)":"d091187f","getCredentialHash(string)":"82c4e329","getCredentialIssuer(string)":"3d9d57c7","getCredentialKey(string)":"f0ca84c0","getCredentialKeyByProofHash(bytes32)":"b85d4c3b","getCredentialProofMetadata(string)":"7b89d803","getCredentialRevocation(string)":"c0fc414e","getCredentialTimestamp(string)":"594784a5","getIssuerProfile(address)":"80cdb70f","isAuthorizedIssuer(address)":"31ba1966","isCredentialIssuer(string,address)":"95d40bf8","isCredentialRevoked(string)":"61e2d602","isCredentialValid(string,bytes32)":"9b75b6b2","owner()":"8da5cb5b","removeIssuer(address)":"47bc7093","renounceOwnership()":"715018a6","revokeCredential(string)":"5e9a2d28","setIssuerName(address,string)":"e5542ed1","transferOwnership(address)":"f2fde38b","verifyCredential(string,bytes32)":"c02bce12"}}}}}